:020000022000DC
:10700000000004201972020001720200A95205005A
:1070100005720200077202000972020000000000FF
:107020000000000000000000000000005981050081
:107030000D720200000000007D8105001172020047
:1070400021AB04001372020031AB0400D5DA040056
:10705000EDDA04001372020009A60400DDBD04008D
:107060001372020013720200137202006DBA040060
:1070700013720200137202001372020013720200F4
:1070800001110500E585050013720200137202006C
:107090001372020013720200217C050013720200B9
:1070A00013720200137202001372020013720200C4
:1070B00069B5040013720200000000000000000027
:1070C000137202001372020013720200C1CC04009A
:1070D00081BA04001372020013720200E105050078
:1070E000E1E80400137202001372020000000000C5
:1070F0000000000013720200000000001372020082
:10710000000000000000000000000000000000007F
:10711000000000000000000000000000000000006F
:10712000000000000000000000000000000000005F
:10713000000000000000000000000000000000004F
:10714000000000000000000000000000000000003F
:10715000000000000000000000000000000000002F
:10716000000000000000000000000000000000001F
:10717000000000000000000000000000000000000F
:1071800000000000000000000000000000000000FF
:1071900000000000000000000000000000000000EF
:1071A00000000000000000000000000000000000DF
:1071B00000000000000000000000000000000000CF
:1071C00000000000000000000000000000000000BF
:1071D00000000000000000000000000000000000AF
:1071E000000000000000000000000000000000009F
:1071F000000000000000000000000000000000008F
:10720000FEE7FEE7FEE7FEE7FEE7FEE7FEE7FEE756
:10721000FEE7FEE700F002B8FFF7FCBF0F484FF0B3
:107220000701884385460E4880470E48016841F4AF
:1072300070010160BFF34F8FBFF36F8F00F01AB87A
:1072400009480A490A4A884207D0521A05D00378E9
:1072500001300B700131013AF9D170470000042070
:10726000F570040088ED00E044DD0500008000209A
:10727000008000203A493B480A1A02D00722914375
:107280008D46394939480A1A06D00722914381F3BD
:107290000988022282F3148835483649364A00F0BC
:1072A00041F836483649374A00F03CF83648374905
:1072B000374A00F037F837483749384A00F032F893
:1072C00037483849384A00F02DF838483849394AA3
:1072D00000F028F838483949394A00F023F839488D
:1072E0003949002200F036F838483949002200F0C8
:1072F00031F838483849091A36F0EAF9374A9047E0
:1073000025482649884205D00268043003B49047D6
:1073100003BCF7E700208646EC4600200021304AF7
:107320009047FEE7884214D0521A12D003460B430E
:1073300013430324234206D1036804300B60043155
:10734000043AF9D17047037801300B700131013AEA
:10735000F9D17047884202D002700130FAE77047D5
:107360000000042000E003200000042000000420AE
:1073700030570600008000206CE40020E473020017
:10738000E4730200F0DB05003057060000800020A7
:107390000080002044DD050044DD050044DD0500DB
:1073A00044DD050044DD050044DD050044DD050045
:1073B00044DD05002D5706009CBB06006CE4002050
:1073C0006CE400206CE400202C5902202C5902208F
:1073D00034590220345902203479022041720200CB
:0473E000D16C040068
:1073E400BFF34F8F00BF064BDB6803F4E062044930
:1073F400044B1343CB60BFF34F8F00BF00BFFDE7C7
:1074040000ED00E00400FA0500B5CFB001F062FC25
:107414004D9000F00FFE4C9001F0B2FE4B9000F046
:10742400FBFC4A9002F0A0F8499000F053FB48900E
:107434004EABA3F59C7318464FF490731A46002183
:1074440036F0E8FA4EABA3F59C737E4A1A604EAB55
:10745400A3F59C737C4ADA604EABA3F59C737B4A1C
:107464001A614EABA3F59C73794A9A614EABA3F5AE
:107474009C73784A5A624EABA3F59C73764A9A621F
:107484004EABA3F59C73754A1A634EABA3F59C737C
:10749400012283F838204EABA3F59C73704ADA635B
:1074A4004EABA3F59C736F4A1A644EABA3F59C7361
:1074B4006D4A9A644EABA3F59C73012283F8502065
:1074C4004EABA3F59C73694A5A654EABA3F59C7306
:1074D400674A9A654EABA3F59C73664A1A664EAB2F
:1074E400A3F59C73012283F868204EABA3F59C732B
:1074F400614ADA664EABA3F59C73604A1A674EABD9
:10750400A3F59C735E4A9A674EABA3F59C735D4AE0
:10751400C3F884204EABA3F59C735B4AC3F8882060
:107524004EABA3F59C734C9AC3F88C204EABA3F5D9
:107534009C73564AC3F890204EABA3F59C73544AEF
:10754400C3F89C204EABA3F59C73524AC3F8A02009
:107554004EABA3F59C734D9AC3F8A4204EABA3F590
:107564009C734D4AC3F8A8204EABA3F59C734B4AB9
:10757400C3F8B4204EABA3F59C73494AC3F8B820B2
:107584004EABA3F59C734B9AC3F8BC204EABA3F54A
:107594009C73444AC3F8C0204EABA3F59C73424A83
:1075A400C3F8CC204EABA3F59C73404AC3F8D0205B
:1075B4004EABA3F59C734A9AC3F8D4204EABA3F503
:1075C4009C733B4AC3F8D8204EABA3F59C73394A4D
:1075D400C3F8E4204EABA3F59C73374AC3F8E82004
:1075E4004EABA3F59C73499AC3F8EC204EABA3F5BC
:1075F4009C73324AC3F8F0204EABA3F59C73304A17
:10760400C3F8FC204EABA3F59C732E4AC3F80021AB
:107614004EABA3F59C73489AC3F804214FF49070C1
:1076240030F066FB0346284A1360274B1B68694603
:107634004FF49072184636F0BBF900BF4FB05DF8B6
:1076440004FB00BF44DD05001D7802004CDD05008D
:1076540054DD0500E97802005CDD05006CDD050001
:10766400F578020070DD050080DD050081790200F7
:1076740088DD050094DD0500017A02009CDD05002B
:10768400ACDD050045800200B0DD0500CCDD050061
:10769400C1900200D0DD0500E0DD050091910200FB
:1076A400E8DD0500F8DD0500297E020000DE0500A6
:1076B40010DE05007995020018DE050030DE0500B5
:1076C400E57A020034DE05006CE4002010B586B0D3
:1076D400039002910192214B1B68059302E0059BE4
:1076E40018330593059B1B68002B0FD0059B1C6862
:1076F400059B1B68184636F025F803461A4603997D
:10770400204636F051F80346002BE8D1059B1B6850
:10771400002B09D11249022003F00CFE1149052067
:1077240003F008FE012315E0059B5B68029A9A4268
:1077340005DA0D49012003F0FDFD01230AE0059B54
:10774400DB680199029898470346002B0CBF01237C
:107754000023DBB2184606B010BD00BF6CE4002065
:1077640040DE050050DE050054DE050000B585B09E
:107774000190002303932449052003F0DBFD2349F2
:10778400052003F0D7FD27E0039A13465B0013445A
:10779400DB001A46019B13441B7A83F00103DBB21E
:1077A400002B16D0039A13465B001344DB001A46E1
:1077B400019B13441968039A13465B001344DB00CE
:1077C4001A46019B13441B690A461149052003F01C
:1077D400B1FD039B01330393039A13465B001344E7
:1077E400DB001A46019B13441B68002BCCD10649CD
:1077F400052003F09FFD0749052003F09BFD00BF12
:1078040005B05DF804FB00BF6CDE0500B0DE0500CA
:10781400CCDE050050DE050010B584B00190009167
:10782400009B1B68002B09D0009B1B68029300235C
:107834008DF80F3000238DF80E3037E001234BE034
:10784400274B19689DF80F2013465B001344DB0097
:107854000B441C68224B19689DF80F2013465B00EB
:107864001344DB000B441B68184635F06BFF0346DA
:107874001A462146029835F097FF0346002B10D193
:10788400174B19689DF80F2013465B001344DB0067
:107894000B445B691846FFF769FF01238DF80E302E
:1078A40010E09DF80F3001338DF80F300C4B196840
:1078B4009DF80F2013465B001344DB000B441B6848
:1078C400002BBDD19DF80E30002B04D1044B1B6856
:1078D4001846FFF74BFF0023184604B010BD00BF45
:1078E4006CE4002000B583B001900091FFF778FDAF
:1078F40000B589B003900291029B1B68002B08D04D
:10790400029B1B680793029B04331B68002B0BD05C
:1079140001E0012327E0029B5B680693029B083386
:107924001B68002B10D001E001231CE0029B9B6824
:107934000593029B1B680A220D49184635F034FF53
:107944000346002B0ED101E001230CE0094903207A
:1079540003F0F0FC002300930023002200210648DA
:1079640017F060FA0123184609B05DF804FB00BF64
:10797400DCDE0500E8DE05000200000500B589B084
:1079840003900291029B1B68002B08D0029B1B688A
:107994000793029B04331B68002B0BD001E00123E7
:1079A40023E0029B5B680693029B08331B68002B51
:1079B4001AD001E0012318E0029B9B680593002381
:1079C40000930023002201210A481DF047FC662091
:1079D40031F07AFD002300930023002200210648A1
:1079E40017F020FA012300E00123184609B05DF8DE
:1079F40004FB00BF030001060100000500B589B0C7
:107A040003900291029B1B68002B08D0029B1B6809
:107A14000793029B04331B68002B0BD001E0012366
:107A24004FE0029B5B680693029B08331B68002BA4
:107A340026D001E0012344E0029B9B680593234A7E
:107A44002349032003F076FC079B1B78303B092B6A
:107A540035D801A252F823F0C37A0200C37A020097
:107A6400C37A0200897A0200C37A0200957A02007E
:107A7400C37A0200C37A0200C37A0200AF7A02001A
:107A840001231EE0022007F0FFF806F081FD17E055
:107A9400002304930A220021069832F078FF03465B
:107AA4000493049809F05EF80AE00023009300238D
:107AB400002200214FF0857017F01AFD00E000BF8E
:107AC4000123184609B05DF804FB00BF00DF050080
:107AD400F8DE0500014B1846704700BF0080002007
:107AE40010B584B001900091009B1B68002B09D055
:107AF400009B1B68029300238DF80F3000238DF840
:107B04000E3037E0012348E09DF80F202449134646
:107B14005B001344DB000B441C689DF80F202049D4
:107B240013465B001344DB000B441B68184635F016
:107B340009FE03461A462146029835F035FE0346EF
:107B4400002B12D19DF80F20154913465B001344F6
:107B5400DB000B440C331B68009A04321146019875
:107B6400984701238DF80E300FE09DF80F30013354
:107B74008DF80F309DF80F20094913465B0013441C
:107B8400DB000B441B68002BBED19DF80E30002B8C
:107B940002D10348FFF7EAFD0123184604B010BDE3
:107BA4000080002000B585B003900291029B1B6801
:107BB40002221D49184635F0F7FD0346002B08D173
:107BC40000230093002300220121184816F0E8FE48
:107BD40024E0029B1B6803221549184635F0E4FD96
:107BE4000346002B08D10023009300230022002128
:107BF4000E4816F0D5FE11E0029B1B6806220D49C3
:107C0400184635F0D1FD0346002B07D1002300931D
:107C1400002300220021084816F0C2FE0023184663
:107C240005B05DF804FB00BFB8DF050000000107E4
:107C3400BCDF0500C0DF05000000030700B585B008
:107C440003900291002300930023002200210448A2
:107C540016F0A6FE0023184605B05DF804FB00BF2D
:107C64000200010700B585B0039002910023009340
:107C7400002300220021044816F092FE0023184637
:107C840005B05DF804FB00BF0400010782B0019059
:107C9400019B1B681F2B02D84FF0A04306E0019BF9
:107CA4001B6803F01F02019B1A60024B184602B0C6
:107CB400704700BF0003005000B585B0019008462E
:107CC40011461A4603468DF803300B468DF80230F0
:107CD40013468DF8013001AB1846FFF7D7FF039028
:107CE4009DF803209DF802305B001A439DF8013093
:107CF4009B001A439DF818301B0242EA03019DF8C9
:107D04001C301B04019A1943039B02F5E07243F8EB
:107D1400221000BF05B05DF804FB00B585B00390E8
:107D240000230193002300930023012201210398DF
:107D3400FFF7C2FF00BF05B05DF804FB00B585B0D6
:107D440003900B468DF80B309DF80B300022019206
:107D540000220092002200210398FFF7ADFF00BF2C
:107D640005B05DF804FB00B585B0019001AB184681
:107D7400FFF78CFF0390019B012202FA03F31946DB
:107D8400039800F035F800BF05B05DF804FB00B5BA
:107D940085B0019001AB1846FFF778FF0390019B73
:107DA400012202FA03F31946039800F02BF800BFEE
:107DB40005B05DF804FB00B585B0019001AB184631
:107DC400FFF764FF0390039800F00AF80246019B52
:107DD40022FA03F303F00103184605B05DF804FB2F
:107DE40082B00190019BD3F81035184602B0704759
:107DF40082B001900091019B009AC3F8082500BF4E
:107E040002B0704782B001900091019B009AC3F8C0
:107E14000C2500BF02B07047014B1846704700BFE5
:107E24006080002010B584B001900091009B1B6815
:107E3400002B09D0009B1B68029300238DF80F30A0
:107E440000238DF80E3037E0012348E09DF80F2021
:107E5400244913465B001344DB000B441C689DF863
:107E64000F20204913465B001344DB000B441B68BE
:107E7400184635F067FC03461A462146029835F049
:107E840093FC0346002B12D19DF80F20154913468D
:107E94005B001344DB000B440C331B68009A043270
:107EA40011460198984701238DF80E300FE09DF894
:107EB4000F3001338DF80F309DF80F200949134618
:107EC4005B001344DB000B441B68002BBED19DF800
:107ED4000E30002B02D10348FFF748FC012318465B
:107EE40004B010BD6080002000B585B00190009101
:107EF400009B1B680A220021184632F048FD034605
:107F04008DF80F30009B04331B6802221549184674
:107F140035F04AFC0346002B06D19DF80F300021B2
:107F24001846FFF70BFF0FE0009B04331B68032286
:107F34000D49184635F038FC0346002B04D19DF852
:107F44000F301846FFF7E9FE9DF80F20009B04331D
:107F54001B680649032003F0EDF90023184605B019
:107F64005DF804FB58E005005CE0050060E00500F6
:107F740000B585B001900091009B1B680A22002186
:107F8400184632F004FD034603930398FFF713FFEA
:107F94000290029B002B01D0064B00E0064B039A93
:107FA4000649032003F0C6F90023184605B05DF81E
:107FB40004FB00BF7CE0050084E0050088E00500C8
:107FC40000B585B001900091009B1B680A22002136
:107FD400184632F0DCFC03460393009B04331B6811
:107FE4000A220021184632F0D2FC03460293029B77
:107FF400002B03D10398FFF7CAFE05E0029B012B77
:1080040002D10398FFF7AFFE029B002B01D0064B71
:1080140000E0064B039A0649032003F08BF9002382
:10802400184605B05DF804FB7CE0050084E005001B
:10803400A8E00500014B1846704700BFC08000202F
:1080440010B584B001900091009B1B68002B09D0EF
:10805400009B1B68029300238DF80F3000238DF8DA
:108064000E3037E0012348E09DF80F2024491346E1
:108074005B001344DB000B441C689DF80F2020496F
:1080840013465B001344DB000B441B68184635F0B1
:1080940059FB03461A462146029835F085FB0346F0
:1080A400002B12D19DF80F20154913465B00134491
:1080B400DB000B440C331B68009A04321146019810
:1080C400984701238DF80E300FE09DF80F300133EF
:1080D4008DF80F309DF80F20094913465B001344B7
:1080E400DB000B441B68002BBED19DF80E30002B27
:1080F40002D10348FFF73AFB0123184604B010BD30
:10810400C080002000B589B003900291029B1B68D7
:108114004549184635F0F0FB0346002B02D114F014
:10812400D3F87CE0029B1B6803224049184635F0D3
:108134003BFB0346002B02D114F011F96FE0029BC4
:108144001B6803223A49184635F02EFB0346002BE0
:1081540023D1029B04331B6802223349184635F0AD
:1081640023FB0346002B06D114F068F931490320A0
:1081740003F0E0F853E0029B04331B6803222B490D
:10818400184635F011FB0346002B48D114F05BF977
:108194002949032003F0CEF841E0029B1B68032227
:1081A4002649184635F000FB0346002B0FD1029BED
:1081B40004331B680A220021184632F0E8FB034608
:1081C4000793079B9BB2184614F042F927E000235B
:1081D400ADF81A300023ADF818300023ADF816308E
:1081E4000023ADF8143005AB0DF1160206A90DF10C
:1081F4001A0014F0F7F814F017F9BDF91A301946FB
:10820400BDF918301846BDF91630BDF91420019295
:10821400009303460A460A49032003F08BF800231F
:10822400184609B05DF804FBD8E30500DCE305005B
:10823400E0E30500E4E3050004E4050024E40500AC
:1082440028E4050000B585B001900091009B1B68EF
:1082540002221C49184635F0A7FA0346002B06D122
:1082640015F022F91849032003F064F825E0009B77
:108274001B6803221549184635F096FA0346002B6D
:1082840006D115F018F91249032003F053F814E04D
:108294000023ADF80E3000238DF80D300DF10D02E2
:1082A4000DF10E031146184615F0B4F9BDF90E3060
:1082B4001A460849032003F03DF80023184605B088
:1082C4005DF804FBD8E3050054E40500DCE3050095
:1082D40068E405007CE4050000B585B001900091D8
:1082E400009B1B6802221A49184635F05DFA0346C2
:1082F400002B06D114F0AFFB1649032003F01AF843
:1083040020E0009B1B6803221349184635F04CFA01
:108314000346002B06D114F0A3FB1049032003F0FD
:1083240009F80FE0002303930023029302AA03AB8E
:108334001146184614F083FB029A039B0849032054
:1083440002F0F8FF0023184605B05DF804FB00BFF7
:10835400D8E3050090E40500DCE30500A0E4050093
:10836400B0E4050000B585B001900091009B1B6846
:1083740002221C49184635F017FA0346002B06D191
:1083840015F092F81849032002F0D4FF25E0009B71
:108394001B6803221549184635F006FA0346002BDC
:1083A40006D115F088F81249032002F0C3FF14E047
:1083B4000023ADF80E3000238DF80D300DF10D02C1
:1083C4000DF10E031146184615F024F99DF80D30F1
:1083D4001A460849032002F0ADFF0023184605B0F1
:1083E4005DF804FBD8E30500E0E40500DCE30500E8
:1083F400F0E4050000E5050000B587B001900091A8
:10840400009B1B685549184635F076FA0346002B45
:1084140002D114F027F99BE0009B1B68032250490A
:10842400184635F0C1F90346002B02D114F05AF96D
:108434008EE0009B1B684B49184635F05DFA0346F5
:10844400002B13D1009B04331B68062246491846AF
:1084540035F0AAF90346002B7AD10023ADF80E308B
:108464000DF10E03184614F087F871E0009B1B68A9
:1084740006223E49184635F097F90346002B1BD1D6
:10848400009B04331B6803223949184635F08CF9E4
:108494000346002B02D114F02DF959E0009B04335C
:1084A4001B6804223349184635F07EF90346002B35
:1084B4004ED114F0A1F94BE0009B1B6806222E4913
:1084C400184635F071F90346002B37D1009B04336D
:1084D4001B6803222649184635F066F90346002B2B
:1084E40010D1009B08331B680A220021184632F081
:1084F4004EFA0346ADF81030BDF81030184614F0AB
:1085040021F925E0009B04331B680422194918460D
:1085140035F04AF90346002B1AD1009B08331B6837
:108524000A220021184632F032FA0346ADF812301E
:10853400BDF81230184614F087F909E000230593BA
:1085440014F058FA0590059A0C49032002F0F2FE43
:108554000023184607B05DF804FB00BFD8E305000C
:10856400DCE3050010E5050014E505001CE5050045
:1085740024E5050028E5050030E5050038E505009B
:1085840030B58FB00790069100230D9300230C9310
:10859400069B1B6803224449184635F005F9034637
:1085A400002B3CD1069B04331B680A220021184689
:1085B40032F0EDF903460D93069B04331B680A223F
:1085C4000021184632F0E3F903460C930D980EF09F
:1085D40001FA0C980EF072F80AAB19460D980CF0DB
:1085E40075FD08AB19460C980CF070FDBDF82830E9
:1085F4001D469DF82A309DF82B209DF82C109DF8DF
:108604002D009DF82E400494039002910192009352
:108614002B460D9A2549032002F08CFE3FE00EF014
:10862400E3F90D900EF000F90C900AAB19460D9881
:108634000CF04CFD08AB19460C980CF047FDBDF846
:1086440028301D469DF82A309DF82B209DF82C10CB
:108654009DF82D009DF82E40049403900291019200
:1086640000932B460D9A1249032002F063FEBDF8D5
:1086740020301D469DF822309DF823209DF82410BB
:108684009DF825009DF826400494039002910192E0
:1086940000932B460C9A0749032002F04BFE00235B
:1086A40018460FB030BD00BF4CE5050050E505008D
:1086B40094E50500C8E5050000B585B0019000917A
:1086C400009B1B6802223D49184635F06DF80346AD
:1086D400002B06D10DF0A6FE3949032002F02AFE34
:1086E40066E0009B1B6803223649184635F05CF8A7
:1086F4000346002B06D10DF09AFE3349032002F005
:1087040019FE55E0009B1B6806223049184635F0D7
:108714004BF80346002B07D101200DF08DFE2C49A8
:10872400032002F007FE43E0009B1B68072229494F
:10873400184635F039F80346002B07D100200DF018
:108744007BFE2549032002F0F5FD31E0009B1B6808
:108754000A220021184632F01AF903460393009BBB
:1087640004331B680A220021184632F010F903462C
:108774000293029B039A1949032002F0DBFD039B39
:10878400002B0AD113F0A4FB64200DF0B1FE662087
:1087940030F09AFE13F0A2FB0AE0029B002B03D1F7
:1087A40064200DF0A5FE03E0029903980DF07EFE0F
:1087B4000023184605B05DF804FB00BFD8E30500AC
:1087C400FCE50500DCE3050008E6050018E6050005
:1087D40020E6050030E6050038E605004CE6050015
:1087E40000B58DB003900291029B1B6802227B4965
:1087F400184634F0D9FF0346002B06D10CF0F6FEE0
:108804000DF08AF90CF026FFE3E0029B1B680322BB
:108814007349184634F0C8FF0346002B02D10CF00C
:1088240005FFD6E0029B1B6805226E49184634F00A
:10883400BBFF0346002B06D10DF0FAFC0DF06CF9DA
:108844000CF008FFC5E0029B1B6805226649184628
:1088540034F0AAFF0346002B06D10DF0F5FC0DF011
:108864005BF90CF0F7FEB4E0029B1B6804225F493D
:10887400184634F099FF0346002B1BD10023ADF8B2
:1088840024300023ADF82630594B9B889BB2ADF8B9
:108894002830574BDB889BB2ADF82A30544B18680C
:1088A40009AB93E806000DF073FC0DF035F90CF0FC
:1088B400D1FE8EE0029B1B6805224E49184634F017
:1088C40073FF0346002B12D14B4A07AB92E8030017
:1088D40083E80300012301930023009307AB0CCB2F
:1088E400052144480DF0B0FA0CF0B4FE71E0029B8F
:1088F4001B6805224149184634F056FF0346002BF5
:1089040017D1029B04331B6810220021184632F051
:108914003EF803468DF82E309DF82E3018460DF0A3
:108924009FFC9DF82E301A463549032002F002FDC3
:108934004FE0029B1B6808223249184634F034FF8A
:108944000346002B17D1029B04331B68102200211D
:10895400184632F01CF803468DF82F309DF82F305E
:1089640018460DF08EFC9DF82F301A46244903203A
:1089740002F0E0FC2DE0029B1B680222224918460B
:1089840034F012FF0346002B23D1029B04331B68EF
:10899400002B05D0029B04331B681B78002B01D1EC
:1089A400002317E0029B04331B6818460AF0A6FC58
:1089B400164A05AB92E8030083E803000AF040FC82
:1089C40005AB93E806000DF0E3FB0DF0A5F80CF001
:1089D40041FE002318460DB05DF804FBD8E3050002
:1089E400DCE3050074E605007CE6050084E605008A
:1089F400A01306008CE60500C8E6050094E6050011
:108A04009CE60500B8E60500C4E60500D0E60500CE
:108A140000B583B001900091009B1B6807221B499D
:108A2400184634F0C1FE0346002B07D101200FF095
:108A340027FD1749032002F07DFC22E0009B1B6800
:108A440003221449184634F0AFFE0346002B07D125
:108A540002200FF015FD1049032002F06BFC10E01A
:108A6400009B1B6805220D49184634F09DFE034601
:108A7400002B06D103200FF003FD0949032002F067
:108A840059FC0023184603B05DF804FB1CE3050001
:108A9400D8E60500ECE60500F0E6050000E7050071
:108AA40008E7050000B587B003900291029B1B689C
:108AB40002223A49184634F077FE0346002B02D1CD
:108AC40013F0ACF864E0029B1B6803223449184697
:108AD40034F06AFE0346002B02D113F0B1F857E0DC
:108AE400029B1B6803222F49184634F05DFE03469F
:108AF400002B4BD1029B04331B68022227491846E2
:108B040034F052FE0346002B1AD106F0F7F8034660
:108B14008DF816309DF81630002B39D1012006F05F
:108B2400F5F805F035FD0023009300230022002111
:108B34001D481AF093FE1D49032002F0FBFB27E0B9
:108B4400029B04331B6803221549184634F02CFE9B
:108B54000346002B1CD106F0D1F803468DF81730DC
:108B64009DF81730012B13D1002006F0CFF805F043
:108B74000FFD002300930023002200210A481AF06D
:108B84006DFE0B49032002F0D5FB01E013F06AF8F7
:108B94000023184607B05DF804FB00BFD8E30500C6
:108BA400DCE3050018E70500000009031CE70500E5
:108BB4003CE7050000B585B001900091009B1B685F
:108BC40002221D49184634F0EFFD0346002B06D15E
:108BD40012F096FE1949032002F0ACFB26E0009B3C
:108BE4001B6803221649184634F0DEFD0346002BA9
:108BF40006D112F0D5FE1349032002F09BFB15E0C9
:108C04000023ADF80E300023ADF80C3003AA0DF1AB
:108C14000E031146184612F013FEBDF90C301A4625
:108C2400BDF90E300849032002F084FB00231846E6
:108C340005B05DF804FB00BFD8E305005CE7050060
:108C4400DCE3050074E7050090E7050000B585B096
:108C540001900091009B1B6804220A49184634F0D5
:108C6400A3FD0346002B07D12FF00CF90390039AC0
:108C74000549032002F05EFB0023184605B05DF8A9
:108C840004FB00BFA4E70500ACE7050000B585B010
:108C940003900291029B1B6808220C49184634F089
:108CA40083FD0346002B0CD10949032002F042FB4B
:108CB400002300930023002200214FF0857016F05A
:108CC40017FC0023184605B05DF804FBBCE705005B
:108CD400C8E70500014B1846704700BF108200200A
:108CE40000B585B00190019834F02CFD03469BB289
:108CF4000133ADF80E30BDF80E3018462EF0F8FFF3
:108D040003460293029BBDF80E200021184634F05E
:108D140081FE029B019A0849184633F039FB02ABE5
:108D24001946012000F026F8029B18462FF072F82D
:108D340000BF05B05DF804FB30E9050000B583B061
:108D4400019000910348FFF7CBFF00BF03B05DF82B
:108D540004FB00BFE4E7050000B583B00190009177
:108D64000348FFF7BDFF00BF03B05DF804FB00BF7D
:108D7400ECE7050000B587B003900291029B1B68E5
:108D8400184634F0DFFC03469BB20333ADF81630CB
:108D9400BDF8163018462EF0ABFF0490BDF816301F
:108DA4001A460021049834F035FEBDF81610029BD3
:108DB4001B68084A049833F0D3FA0499BDF81620C6
:108DC400002300930023044814F01EFE00BF07B0E4
:108DD4005DF804FB34E905000300000400B585B028
:108DE40003900291029B1B6802221C49184634F02E
:108DF400DBFC0346002B0BD10FF044FD0023009352
:108E04000023002200214FF0806014F0FDFD20E0DB
:108E1400029B1B6803221249184634F0C5FC034622
:108E2400002B0AD1002300930023002200210D48C7
:108E340014F0EAFD0FF045FD0BE0029B1B680522D0
:108E44000949184634F0B0FC0346002B01D10FF059
:108E540047FD00BF05B05DF804FB00BF3CE9050019
:108E640040E905000100000444E9050000B585B0AF
:108E740001900091009B1B68184631F078FD034671
:108E84000393039801F0CCFD039A0449032002F0F4
:108E940051FA00BF05B05DF804FB00BF4CE90500C2
:108EA40082B00190009100BF02B0704700B583B05A
:108EB40001900091009B1B6805226849184634F014
:108EC40073FC0346002B03D16548FFF709FFC0E09C
:108ED400009B1B6804226349184634F065FC034672
:108EE400002B03D16048FFF7FBFEB2E0009B1B6838
:108EF40002225E49184634F057FC0346002B02D187
:108F04000FF0F8FCA5E0009B1B68032258491846A3
:108F140034F04AFC0346002B02D10FF0F4FC98E035
:108F2400009B1B6809225349184634F03DFC034654
:108F3400002B19D1009B04331B681A784E4B1B7805
:108F4400D31A002B03D14D48FFF7CAFE81E0009BE2
:108F540004331B681A784A4B1B78D31A002B78D138
:108F64004848FFF7BDFE74E0009B1B680622464993
:108F7400184634F019FC0346002B2AD1009B043315
:108F84001B6804224149184634F00EFC0346002BAA
:108F940003D13F48FFF7A4FE5BE0009B04331B684A
:108FA40004223C49184634F0FFFB0346002B03D14E
:108FB4003948FFF795FE4CE0009B04331B681A7890
:108FC400364B1B78D31A002B43D13548FFF788FE64
:108FD4003FE0009B1B6803223249184634F0E4FB4F
:108FE4000346002B1DD1009B04331B6803222E492A
:108FF400184634F0D9FB0346002B03D101200FF0AF
:1090040009FC26E0009B04331B6803222749184609
:1090140034F0CAFB0346002B1BD102200FF0FAFBED
:1090240017E0009B1B6804222149184634F0BCFB5E
:109034000346002B0DD1009B04331B6803221D49FA
:10904400184634F0B1FB0346002B02D11A48FFF74F
:1090540047FE00BF03B05DF804FB00BF6CE90500E8
:1090640074E9050080E9050088E905003CE905008C
:1090740040E9050094E90500A0E90500A4E905001C
:10908400C0E90500C4E90500E0E90500E8E90500D8
:10909400F0E9050008EA050010EA050038EA0500D1
:1090A4003CEA050064EA050068EA05006CEA05008C
:1090B40070EA050078EA05007CEA050010B584B082
:1090C40001900091009B1B68002B09D0009B1B683A
:1090D400029300238DF80F3000238DF80E3037E013
:1090E400012348E09DF80F20244913465B001344F4
:1090F400DB000B441C689DF80F20204913465B00DD
:109104001344DB000B441B68184634F01BFB034676
:109114001A462146029834F047FB0346002B12D12D
:109124009DF80F20154913465B001344DB000B44E4
:109134000C331B68009A04321146019898470123A6
:109144008DF80E300FE09DF80F3001338DF80F309D
:109154009DF80F20094913465B001344DB000B44C0
:109164001B68002BBED19DF80E30002B02D10348A2
:10917400FEF7FCFA0123184604B010BD108200204B
:10918400014B1846704700BFD082002010B584B050
:1091940001900091009B1B68002B09D0009B1B6869
:1091A400029300238DF80F3000238DF80E3037E042
:1091B400012348E09DF80F20244913465B00134423
:1091C400DB000B441C689DF80F20204913465B000C
:1091D4001344DB000B441B68184634F0B3FA03460F
:1091E4001A462146029834F0DFFA0346002B12D1C6
:1091F4009DF80F20154913465B001344DB000B4414
:109204000C331B68009A04321146019898470123D5
:109214008DF80E300FE09DF80F3001338DF80F30CC
:109224009DF80F20094913465B001344DB000B44EF
:109234001B68002BBED19DF80E30002B02D10348D1
:10924400FEF794FA0123184604B010BDD082002022
:1092540000B585B0039002910023009300230022FF
:1092640000214FF0807016F043F90023184605B032
:109274005DF804FB00B585B00390029100230093D0
:10928400002300220021044816F032F90023184676
:1092940005B05DF804FB00BF00000F0100B585B008
:1092A400039002910023009300230022002104482C
:1092B40016F01EF90023184605B05DF804FB00BF44
:1092C40001000F0100B585B00390029100230093C3
:1092D400002300220021044816F00AF9002318464E
:1092E40005B05DF804FB00BF02000F0100B585B0B6
:1092F40003900291002300930023002200210448DC
:1093040016F0F6F80023184605B05DF804FB00BF1C
:1093140005000F0182B0019000910023184602B0AD
:109324007047000000B585B00390029100230093BC
:10933400002300220021044816F0DAF8002318461E
:1093440005B05DF804FB00BF03000F0100B585B054
:10935400039002910023009300230022002104487B
:1093640016F0C6F80023184605B05DF804FB00BFEC
:1093740004000F0100B583B001900091009B1B68AD
:1093840004225C49184634F00FFA0346002B09D135
:10939400002005F0E3FB05F0FBF85749032001F03A
:1093A400C9FFA1E0009B1B6804225449184634F00D
:1093B400FBF90346002B09D15149032001F0BAFF00
:1093C400012005F0CBFB05F0E3F88DE0009B1B6862
:1093D4004C49184634F090FA0346002B09D1022078
:1093E40005F0BCFB05F0D4F84749032001F0A2FFC7
:1093F4007AE0009B1B6806224449184634F0D4F9ED
:109404000346002B09D1032005F0A8FB05F0C0F8A2
:109414003F49032001F08EFF66E0009B1B68022297
:109424003C49184634F0C0F90346002B09D13A49A7
:10943400032001F07FFF042005F090FB05F0A8F85D
:1094440052E0009B1B6804223449184634F0ACF9FE
:109454000346002B09D13249032001F06BFF05209C
:1094640005F07CFB05F094F83EE0009B1B680622A7
:109474002C49184634F098F90346002B09D10620EC
:1094840005F06CFB05F084F82749032001F052FF36
:109494002AE0009B1B6802222449184634F084F910
:1094A4000346002B09D1072005F058FB05F070F89E
:1094B4001F49032001F03EFF16E0009B1B680422B5
:1094C4001C49184634F070F90346002B09D10820D2
:1094D40005F044FB05F05CF81749032001F02AFF6E
:1094E40002E01648FEF742F90023184603B05DF87F
:1094F40004FB00BFB8EB0500C0EB0500D4EB05008E
:10950400DCEB0500F0EB0500F4EB05008CEA05004C
:109514000CEC0500A4EA050020EC0500B4EA050003
:1095240030EC0500CCEA050044EC050014EB050022
:1095340058EC050024EB050068EC0500D0820020FF
:1095440000B585B00390029100230093002300220C
:109554000021044815F0CCFF0023184605B05DF83F
:1095640004FB00BF08000001014B1846704700BF10
:10957400D883002010B584B001900091009B1B6833
:10958400002B09D0009B1B68029300238DF80F3039
:1095940000238DF80E3037E0012348E09DF80F20BA
:1095A400244913465B001344DB000B441C689DF8FC
:1095B4000F20204913465B001344DB000B441B6857
:1095C400184634F0BFF803461A462146029834F090
:1095D400EBF80346002B12D19DF80F2015491346D2
:1095E4005B001344DB000B440C331B68009A043209
:1095F40011460198984701238DF80E300FE09DF82D
:109604000F3001338DF80F309DF80F2009491346B0
:109614005B001344DB000B441B68002BBED19DF898
:109624000E30002B02D10348FEF7A0F801231846A0
:1096340004B010BDD883002000B58DB00190009116
:109644004FF480530B93009B1B6804222649184651
:1096540034F0AAF80346002B12D102AB20220021D9
:10966400184634F0D7F902AB202219460B980DF0B6
:1096740011FD02AB0B9A1D49032001F05BFE2EE0A5
:10968400009B1B6805221A49184634F08DF80346DE
:10969400002B12D1009B5B680A930A9834F052F8AD
:1096A40003469BB21A460A990B980DF089FC0A9A54
:1096B4001049032001F03EFE11E0009B1B680522C7
:1096C4000D49184634F070F80346002B07D10B9867
:1096D4000DF02AFD0B9A0949032001F02BFE00230B
:1096E40018460DB05DF804FBDCF00500E4F005005D
:1096F40004F105000CF1050030F1050038F1050016
:1097040000B587B003900291029B1B6807222A4987
:10971400184634F049F80346002B08D1002300937F
:1097240000230022002125481AF098F83EE0029B0D
:109734001B6805222249184634F036F80346002BEC
:1097440002D10DF07FFB31E0029B1B6806221D490C
:10975400184634F029F80346002B02D10DF08EFB95
:1097640024E0029B1B681849184634F0C5F80346E8
:10977400002B02D104F0E2FF18E00023059305ABAF
:10978400042118460DF000FB9DF8143019469DF88D
:10979400153018469DF816309DF817200192009355
:1097A40003460A460949032001F0C4FD0023184674
:1097B40007B05DF804FB00BF58F105000000020388
:1097C40060F1050068F1050070F1050078F105000D
:1097D40000B583B0019000910DF026FD04F0F0FE79
:1097E4000023184603B05DF804FB000000B585B003
:1097F40001900091009B1B680393039833F0A2FF30
:1098040003460293029B0B2B0AD1039805F0C6F979
:1098140004F0BEFE039A0849032001F08BFD05E025
:10982400039B029A0549012001F084FD0023184698
:1098340005B05DF804FB00BF9CF10500BCF1050018
:1098440000B589B003900291029B1B68062244492B
:10985400184633F0A9FF0346002B19D1029B0433A9
:109864001B680A220021184631F091F80346ADF82E
:109874001430BDF81430184605F0CAF904F088FE17
:10988400BDF814301A463749032001F053FD62E055
:10989400029B1B6807223449184633F085FF0346B0
:1098A400002B19D1029B04331B680A22002118469D
:1098B40031F06DF80346ADF81630BDF81630184691
:1098C40005F0CEF904F064FEBDF816301A462749B7
:1098D400032001F02FFD3EE0029B1B680422244973
:1098E400184633F061FF0346002B19D1029B043361
:1098F4001B680A220021184631F049F80346ADF8E6
:109904001830BDF81830184605F096F904F040FEFA
:10991400BDF818301A461749032001F00BFD1AE070
:1099240005F070F90346ADF81E3005F093F90346CF
:10993400ADF81C3005F07AF90346ADF81A30BDF8DD
:109944001E20BDF81C10BDF81A3000930B460A49BE
:10995400032001F0EFFC0023184609B05DF804FB76
:10996400FCF1050004F2050034F205003CF20500A8
:1099740050EF05006CF2050098F2050000B583B0C5
:1099840001900091009B1B680422BF49184633F0E4
:109994000BFF0346002B2CD1009B04331B680222CF
:1099A400BA49184633F000FF0346002B08D10120C2
:1099B40005F0D8F904F0ECFDB549032001F0BAFC38
:1099C400009B04331B680322B249184633F0ECFEB3
:1099D4000346002B40F05381002005F0C3F900201A
:1099E40005F05AFA04F0D4FDAB49032001F0A2FCBF
:1099F40045E1009B1B680422A849184633F0D4FEB5
:109A04000346002B2CD1009B04331B6802229F4980
:109A1400184633F0C9FE0346002B08D1012005F097
:109A2400B7F904F0B5FD9E49032001F083FC009BC7
:109A340004331B6803229749184633F0B5FE0346E6
:109A4400002B40F01C81002005F0A2F9002005F055
:109A540045FA04F09DFD9349032001F06BFC0EE1EF
:109A6400009B1B6803229049184633F09DFE034671
:109A7400002B2CD1009B04331B6802228349184617
:109A840033F092FE0346002B08D1012005F096F92D
:109A940004F07EFD8549032001F04CFC009B043357
:109AA4001B6803227B49184633F07EFE0346002BD5
:109AB40040F0E580002005F081F9002005F030FA3F
:109AC40004F066FD7A49032001F034FCD7E0009BE2
:109AD4001B6803227749184633F066FE0346002BC1
:109AE4002CD1009B04331B6802226849184633F0CA
:109AF4005BFE0346002B08D1012005F075F904F044
:109B040047FD6D49032001F015FC009B04331B68DD
:109B140003226049184633F047FE0346002B40F009
:109B2400AE80002005F060F9002005F01BFA04F077
:109B34002FFD6249032001F0FDFBA0E0009B1B68A0
:109B440003225F49184633F02FFE0346002B2BD126
:109B5400009B04331B6802224C49184633F024FE50
:109B64000346002B08D1012005F054F904F010FD40
:109B74005449032001F0DEFB009B04331B680322DD
:109B84004449184633F010FE0346002B77D10020D9
:109B940005F040F9002005F007FA04F0F9FC4A4901
:109BA400032001F0C7FB6AE0009B1B6802224749BF
:109BB400184633F0F9FD0346002B2BD1009B0433E8
:109BC4001B6802223149184633F0EEFD0346002B90
:109BD40008D1012005F034F904F0DAFC3C490320F3
:109BE40001F0A8FB009B04331B6803222949184693
:109BF40033F0DAFD0346002B41D1002005F020F9B3
:109C0400002005F0F3F904F0C3FC3249032001F00D
:109C140091FB34E0009B1B6804222F49184633F063
:109C2400C3FD0346002B2AD1009B04331B68022288
:109C34001649184633F0B8FD0346002B08D101201D
:109C440005F014F904F0A4FC2449032001F072FB8C
:109C5400009B04331B6803220E49184633F0A4FD0D
:109C64000346002B0BD1002005F000F9002005F07D
:109C7400DFF904F08DFC1A49032001F05BFB00239B
:109C8400184603B05DF804FB50EF0500BCF2050074
:109C9400C0F20500E0F20500E4F2050004F305005B
:109CA4000CF305002CF305004CF3050050F30500FC
:109CB40070F3050090F3050094F30500B8F3050074
:109CC400DCF30500E0F3050008F4050030F40500BA
:109CD40034F405005CF4050088F4050090F40500F4
:109CE400B0F4050000B583B001900091009B1B689F
:109CF4000422B549184633F057FD0346002B29D1F9
:109D0400009B04331B680222B049184633F04CFD13
:109D14000346002B08D1012005F0BEF804F038FCFE
:109D2400AB49032001F006FB009B04331B680322AC
:109D3400A849184633F038FD0346002B40F03E8115
:109D4400002005F0A9F804F023FCA349032001F046
:109D5400F1FA33E1009B1B680422A049184633F052
:109D640023FD0346002B29D1009B04331B680222E8
:109D74009649184633F018FD0346002B08D10120FC
:109D840005F0ACF804F004FC9549032001F0D2FA84
:109D9400009B04331B6803228E49184633F004FDEC
:109DA4000346002B40F00A81002005F097F804F0E8
:109DB400EFFB8C49032001F0BDFAFFE0009B1B6818
:109DC40003228949184633F0EFFC0346002B29D1BE
:109DD400009B04331B6802227C49184633F0E4FCE0
:109DE4000346002B08D1012005F09AF804F0D0FBBB
:109DF4007E49032001F09EFA009B04331B68032272
:109E04007449184633F0D0FC0346002B40F0D6804A
:109E1400002005F085F804F0BBFB7549032001F030
:109E240089FACBE0009B1B6803227249184633F081
:109E3400BBFC0346002B29D1009B04331B68022280
:109E44006249184633F0B0FC0346002B08D10120C8
:109E540005F088F804F09CFB6749032001F06AFAD6
:109E6400009B04331B6803225A49184633F09CFCB8
:109E74000346002B40F0A280002005F073F804F0A4
:109E840087FB5E49032001F055FA97E0009B1B68AD
:109E940003225B49184633F087FC0346002B28D184
:109EA400009B04331B6802224849184633F07CFCAB
:109EB4000346002B08D1012005F076F804F068FB76
:109EC4005049032001F036FA009B04331B68032237
:109ED4004049184633F068FC0346002B6ED100203D
:109EE40005F062F804F054FB4749032001F022FA1C
:109EF40064E0009B1B6802224449184633F054FC7A
:109F04000346002B28D1009B04331B6802222F49EF
:109F1400184633F049FC0346002B08D1012005F014
:109F240065F804F035FB3A49032001F003FA009B7D
:109F340004331B6803222749184633F035FC0346D3
:109F4400002B3BD1002005F051F804F021FB3149EE
:109F5400032001F0EFF931E0009B1B6804222E4935
:109F6400184633F021FC0346002B27D1009B043311
:109F74001B6802221549184633F016FC0346002BD1
:109F840008D1012005F054F804F002FB2349032012
:109F940001F0D0F9009B04331B6803220D491846D5
:109FA40033F002FC0346002B08D1002005F040F8F2
:109FB40004F0EEFA1A49032001F0BCF90023184614
:109FC40003B05DF804FB00BF50EF0500BCF20500D0
:109FD400D0F40500E0F20500F0F4050004F30500F8
:109FE40010F5050030F505004CF3050050F50500AB
:109FF40070F5050090F3050090F50500B4F5050033
:10A00400DCF30500D8F5050000F6050030F4050082
:10A0140028F6050050F6050088F4050078F60500DA
:10A0240098F60500F0B5A3B00F900E910E9B1B6837
:10A034000522BB49184633F0B7FB0346002B06D173
:10A04400B849032001F076F906F004FE8CE10E9B7A
:10A054001B680622B449184633F0A6FB0346002BBE
:10A0640040F0D58000231C930E9B04331B680A2206
:10A074000021184630F08BFC03461C93AB490320A7
:10A0840001F058F900232193BBE012F0E4FC11F035
:10A0940037FC13F009FA66202FF016FA0CF0C4FB13
:10A0A4000146219A1C9BD31A0B44119311AB9A1DA0
:10A0B40011AB04331146184613F0ACFA0023ADF883
:10A0C4006E300DF16E0411AB03F10D0211AB03F10F
:10A0D4000B0111AB03F10900234612F083F912F0CE
:10A0E400A3F912F087FC03469BB2ADF85930002364
:10A0F4001A930023199319AA1AAB1146184612F0A1
:10A104009EFC199B1BB2ADF84B30002343F00103B6
:10A114008DF8533000238DF85430002343F00203AC
:10A124008DF8553000238DF85630002343F0030397
:10A134008DF8573000238DF8583012F091FC11F04F
:10A144002FFC13F0B8F907F025F8119CBDF948105D
:10A154009DF84A50BDF94B301EB2BDF859309BB240
:10A16400049302AA0DF15303186810609B8893802E
:10A174006A460DF14D03186810609B88938033463E
:10A184002A46204607F052F807F0F4F8119B0B9387
:10A19400BDF948209DF84A10BDF94B0000B2BDF846
:10A1A4005940A4B2BDF94D502DB2BDF94F6036B23D
:10A1B400BDF951703FB2BDF953C00FFA8CFCCDF814
:10A1C40030C0BDF955C00FFA8CFCCDF834C0BDF9D0
:10A1D40057C00FFA8CFC634609930D9B08930C9BA4
:10A1E40007930697059604950394029001910092B3
:10A1F4000B9B219A4E49032001F09CF8219B0133CB
:10A204002193219B1C9A9A423FF63FAFACE00E9BF0
:10A214001B6804224749184633F0C6FA0346002B4C
:10A224005FD100231D930E9B04331B680A22002177
:10A23400184630F0ACFB03461D9311AB20220021DD
:10A24400184633F0E7FB3C49032001F073F8002380
:10A25400209341E0209BDAB211AB1146184607F077
:10A264008FF9119B0B93BDF948209DF84A10BDF955
:10A274004B0000B2BDF85940A4B2BDF94D502DB207
:10A28400BDF94F6036B2BDF951703FB2BDF953C04C
:10A294000FFA8CFCCDF830C0BDF955C00FFA8CFC18
:10A2A400CDF834C0BDF957C00FFA8CFC634609934E
:10A2B4000D9B08930C9B07930697059604950394AE
:10A2C4000290019100920B9B209A1949032001F0FE
:10A2D40031F8209B01332093209B1D9A9A42B9D8D0
:10A2E40042E00E9B1B6804221449184633F05CFAC2
:10A2F4000346002B26D100231E930E9B04331B68B8
:10A304000A220021184630F042FB03461E930C49F2
:10A31400032001F00FF81E9807F09CF924E000BF19
:10A3240030F10500B8F60500D4F60500DCF60500AA
:10A33400FCF60500DCF0050088F70500A8F7050029
:10A34400B0F705000E9B1B6803220949184633F039
:10A354002BFA0346002B07D107F07CF81F901F9AB5
:10A364000449032000F0E6FF0023184623B0F0BDA3
:10A37400D0F70500D4F7050000B595B00590049119
:10A38400049B1B6805226849184633F00DFA0346FE
:10A39400002B06D105F0A8FF6449032000F0CAFF92
:10A3A400BDE0049B1B6806226149184633F0FCF9A2
:10A3B4000346002B43D100230E93049B04331B68F4
:10A3C4000A220021184630F0E2FA03460E930E9A50
:10A3D4005849032000F0AEFF002313932AE00CF049
:10A3E40023FA0146139A0E9BD31A0B440A93524B39
:10A3F4000B93524B0C930023ADF8343006F020FA43
:10A404000A980B990C9ABDF8343006F023FA06F03A
:10A4140039FA0A990B9B0C9ABDF834000290019208
:10A4240000930B46139A4649032000F083FF139BC5
:10A4340001331393139B0E9A9A42D0D86FE0049B76
:10A444001B6804223F49184633F0AEF90346002B3B
:10A4540035D100230F93049B04331B680A22002187
:10A46400184630F094FA03460F9306AB10220021ED
:10A47400184633F0CFFA3449032000F05BFF002381
:10A48400129317E0129BDAB206AB1146184606F097
:10A49400FFFA0699079B089ABDF8240002900192DE
:10A4A40000930B46129A2649032000F043FF129BA7
:10A4B40001331293129B0F9A9A42E3D82FE0049B24
:10A4C4001B6804222149184633F06EF90346002B19
:10A4D40013D100231093049B04331B680A22002128
:10A4E400184630F054FA034610931949032000F03B
:10A4F40021FF109806F036FB11E0049B1B68032231
:10A504001449184633F050F90346002B07D106F0DE
:10A5140029FA1190119A1049032000F00BFF00232F
:10A52400184615B05DF804FB30F10500F4F705009A
:10A53400D4F605000CF805003C3B390052DFC1009D
:10A544002CF80500DCF0050068F80500A8F7050004
:10A5540084F80500D0F70500A0F8050010B592B006
:10A5640003900291029B1B680522C549184633F0EB
:10A574001BF90346002B06D105F0F6F9C149032067
:10A5840000F0D8FE78E1029B1B680622BE491846FB
:10A5940033F00AF90346002B40F0038100230B93A8
:10A5A400029B04331B680A220021184630F0EFF99D
:10A5B40003460B930B9AB549032000F0BBFE00231E
:10A5C4001193E8E000238DF843300CF02DF9014697
:10A5D400119A0B9BD31A0B440893119AAC4B83FB2F
:10A5E40002135910D317C91A0B465B000B449B0086
:10A5F400D11ACBB28DF824309DF824300B2B00F205
:10A60400B08001A252F823F03DA6020057A6020032
:10A6140073A60200ABA60200B9A60200C7A60200F8
:10A62400E3A60200F1A6020009A7020021A7020086
:10A634002FA702004BA70200002363F063038DF8E9
:10A6440025304FF0FF338DF8263002238DF8433048
:10A6540087E0002343F020038DF82530002343F0E6
:10A6640003038DF8263002238DF8433079E000236C
:10A6740043F004038DF8253000238DF826300023A1
:10A6840043F004038DF8273000238DF8283000238D
:10A6940043F004038DF8293000238DF82A30062373
:10A6A4008DF843305DE01E238DF8253001238DF8AD
:10A6B400433056E050238DF8253001238DF8433084
:10A6C4004FE0002363F01B038DF82530002343F093
:10A6D4000C038DF8263002238DF8433041E000232B
:10A6E4008DF8253001238DF843303AE0002343F000
:10A6F4000A038DF8253000238DF8263002238DF8C7
:10A7040043302EE0002363F037038DF82530002317
:10A714008DF8263002238DF8433022E000238DF893
:10A72400253002238DF843301BE0002363F02B0314
:10A734008DF82530002363F001038DF826300223C1
:10A744008DF843300DE0002343F020038DF82530CD
:10A75400002343F003038DF8263002238DF84330A1
:10A7640000BF05F0ADFB08989DF824109DF8434008
:10A7740008AB5A1D234605F0ADFB05F0CDFB089B45
:10A784009DF824200092119A4249032000F0D2FD42
:10A79400119B01331193119B0B9A9A423FF612AF0E
:10A7A4006AE0029B1B6804223B49184632F0FCFF16
:10A7B4000346002B30D100230C93029B04331B6807
:10A7C4000A220021184630F0E2F803460C9305AB48
:10A7D4000B220021184633F01DF93049032000F004
:10A7E400A9FD00230F9312E00F9BDAB205AB1146CB
:10A7F400184605F097FC059B9DF8182000920F9AC7
:10A804002449032000F096FD0F9B01330F930F9B07
:10A814000C9A9A42E8D82FE0029B1B680422204934
:10A82400184632F0C1FF0346002B13D100230D93C9
:10A83400029B04331B680A220021184630F0A7F853
:10A8440003460D931749032000F074FD0D9805F09D
:10A85400D3FC11E0029B1B6803221349184632F013
:10A86400A3FF0346002B07D105F0C6FB0E900E9AFA
:10A874000E49032000F05EFD0023184612B010BDFF
:10A8840030F10500C0F80500D4F60500DCF8050039
:10A89400ABAAAA2AFCF80500DCF0050024F905009F
:10A8A400A8F7050040F90500D0F705005CF905009C
:10A8B40000B589B001900091009B1B6805224B49AB
:10A8C400184632F071FF0346002B06D104F074FEE3
:10A8D4004749032000F02EFD83E0009B1B680522FE
:10A8E4004449184632F060FF0346002B28D1009BF0
:10A8F40004331B680A220021184630F048F8034646
:10A90400ADF812304FF480702DF0F2F903904FF44B
:10A9140080720F21039833F07DF8BDF81230039A4A
:10A924004FF48071184604F09DFE03982DF072FADE
:10A93400BDF812301A463049032000F0FBFC50E009
:10A94400009B1B6804222D49184632F02DFF034654
:10A95400002B2CD1009B04331B680A2200211846CB
:10A9640030F015F80346ADF81A304FF480702DF02E
:10A97400BFF905904FF480720F21059833F04AF81F
:10A98400BDF81A300599184604F08CFEBDF81A304B
:10A994001A461B49032000F0CDFC4FF48072059940
:10A9A400184800F035FE05982DF034FA19E0009BA4
:10A9B4001B6808221449184632F0F6FE0346002BA1
:10A9C4000FD1009B04331B6818462FF0D0FF0346B9
:10A9D4000793079800F040F8079A0C49032000F009
:10A9E400A9FC0023184609B05DF804FB30F105000A
:10A9F4007CF905008CF9050094F90500ACF9050013
:10AA0400B4F90500CCF90500D4F90500E0F9050016
:10AA140008B5FCF7F9FC0DF041FC00BF08BD0000CF
:10AA240000B583B00190094A019B1360074B1B6872
:10AA3400013318462DF05CF90346054A1360054BB3
:10AA440000221A6000BF03B05DF804FB78EC00201C
:10AA54007CEC002080EC002000B583B001900A4A11
:10AA6400019B13604FF480702DF042F90346074AAE
:10AA74001360074B00221A60064B00221A6000BFC5
:10AA840003B05DF804FB00BF84EC00208CEC0020D4
:10AA940090EC002088EC002000B583B000230193E3
:10AAA40036E02DF01DF80090009BB3F1FF3F34D049
:10AAB400009B0A2B02D0009B0D2B0DD1364905209B
:10AAC40000F038FC354B1B685A1C34490A60009A64
:10AAD400D1B2334AD15418E0009B7F2B0CD12F4BB9
:10AAE4001B68002B11D02F4800F02EFD2B4B1B6848
:10AAF400013B2A4A136008E0284B1B685A1C27496B
:10AB04000A60009AD1B2264AD154019B01330193C1
:10AB1400019BB3F5806FC4D300E000BF1F4B1B68DB
:10AB2400002B34D01D4B1B68013B1D4AD35C0D2BFD
:10AB340006D01A4B1B68013B194AD35C0A2B16D169
:10AB4400164B1B68013B164A0021D154134B1B685A
:10AB5400012B0AD1114B00221A604FF480620021AC
:10AB64000F4832F057FF002312E0012310E00B4B93
:10AB74001B68B3F5806F08D3084B00221A604FF4AA
:10AB840080620021064832F045FF002300E00023E4
:10AB9400184603B05DF804FB00FA050070E80020D5
:10ABA40070E4002004FA050000B587B0019000238A
:10ABB4008DF817302023ADF80C3000238DF80F30BA
:10ABC400019B00221A70FFF767FF0346002B00F079
:10ABD40093809DF81730002B06D103AB19464948E2
:10ABE40032F05AFE049005E003AB1946002032F01F
:10ABF40053FE0490049B002B72D0049832F0A2FD03
:10AC04000346402B62D8049B002B5FD09DF817307D
:10AC1400002B07D1019B0133049A3B49184631F0BC
:10AC2400B7FB53E09DF81730012B0DD1019B413345
:10AC3400049A3549184631F0ABFB019B1B7801336C
:10AC4400DAB2019B1A7041E09DF81730022B0DD146
:10AC5400019B8133049A2C49184631F099FB019BDE
:10AC64001B780133DAB2019B1A702FE09DF817307C
:10AC7400032B0DD1019BC133049A2349184631F0AB
:10AC840087FB019B1B780133DAB2019B1A701DE02C
:10AC94009DF81730042B0ED1019B03F20113049A83
:10ACA4001949184631F074FB019B1B780133DAB261
:10ACB400019B1A700AE0019B1B780133DAB2019BF5
:10ACC4001A70049A1149032000F034FB9DF81730E0
:10ACD40001338DF81730049B002B7FF47AAF00E02A
:10ACE40000BF0B4B00221A604FF48062002105481C
:10ACF40032F090FE012300E00023184607B05DF80F
:10AD040004FB00BF70E4002010FA050014FA0500EB
:10AD140070E8002000B5D7B005AB40F24112002125
:10AD2400184632F077FE05AB1846FFF73DFF0346A1
:10AD3400002B23D056ABA3F5AA7305AA41321A609F
:10AD440056ABA3F5AA7305AA81325A6056ABA3F594
:10AD5400AA7305AAC1329A6056ABA3F5AA7305AAD1
:10AD640002F20112DA6056ABA3F5A2731B781946FE
:10AD740001AA05AB01331846FCF7A8FC00BF57B085
:10AD84005DF804FB00B58BB09A4B1B68002B4FD0C9
:10AD9400002303930DF10B0318460DF0A3FA0346A9
:10ADA4000393039B012B1CD1934B1A68934B1B6891
:10ADB400591C9248016013449DF80B201A708F4B64
:10ADC4001B68DBB2002B05D18C4B1B6819468C48E1
:10ADD40000F0BAFB874B1A68884B1B689A42D7D895
:10ADE40000E000BF854B1A68824B1B689A4240F012
:10ADF4005F81824B1B681946824800F0A5FB7E4B9D
:10AE04001A687E4B1B68591C7C48016013441A2243
:10AE14001A70794B1B681946784B1A680023009303
:10AE24000023794812F0F0FD724B00221A603FE1D2
:10AE3400764B1B68002B00F08E80002307930DF1E6
:10AE44000B0318460DF04EFA03460793079B012B9C
:10AE540036D16F4B1A686F4B1B68591C6D480160E3
:10AE640013449DF80B201A706B4B1B6801336A4A1C
:10AE74001360684B1B68DBB2002B1AD1664B1B684E
:10AE84001B0A9BB2013BADF81A30614B1A68BDF83E
:10AE94001A304FF48071184604F0E4FB5D4B002235
:10AEA4001A60BDF81A305C4A126819465B4800F013
:10AEB4004BFB564B1A68584B1B689A42BDD800E0AE
:10AEC40000BF524B1A68544B1B689A4240F0F08002
:10AED400514B1B681B0A9BB2013BADF818304E4B1B
:10AEE4001B68DBB205934C4B1A68059BD31A049379
:10AEF400059B99B2464B1A68BDF81830184604F001
:10AF0400B1FBBDF81830444A12681946434800F0B2
:10AF14001BFB404B1B681946414800F015FB3B4B9B
:10AF24001B68184604F0D6FB384B00221A60384BD5
:10AF34001B68002B07D0364B1B6818462CF06AFFA1
:10AF4400334B00221A60344B1B681A4635490320E0
:10AF540000F0F0F9ACE00023099345E000230893E6
:10AF64000DF10B0318460DF0BDF903460893089B39
:10AF7400012B63D19DF80B300A2B03D09DF80B30C5
:10AF84000D2B0DD12849052000F0D4F9274B1B685F
:10AF94005A1C26490A609DF80B10254AD15420E01A
:10AFA4009DF80B30082B0CD1204B1B68002B18D0BC
:10AFB400204800F0C9FA1D4B1B68013B1B4A136073
:10AFC4000FE09DF80B301A461B49052000F0B2F93A
:10AFD400164B1B685A1C15490A609DF80B10144A3D
:10AFE400D154099B01330993099BB3F5806FB5D301
:10AFF40025E000BF78EC00207CEC002080EC0020F1
:10B0040020FA05002CFA05000300000484EC00205B
:10B014008CEC002090EC002088EC00204CFA050019
:10B024005CFA050074FA050000FA050074EC0020CF
:10B0340074E8002004FA050094FA050000BF1F4BD1
:10B044001B68002B34D01D4B1B68013B1C4AD35C8E
:10B054000D2B06D0194B1B68013B194AD35C0A2BF4
:10B0640016D1164B1B68013B154A0021D154134BD2
:10B074001B68012B0AD1114B00221A604FF4806225
:10B0840000210F4832F0C6FC002312E0012310E037
:10B094000A4B1B68B3F5806F08D3084B00221A6073
:10B0A4004FF480620021064832F0B4FC002300E033
:10B0B400002318460BB05DF804FB00BF74EC0020BD
:10B0C40074E8002000B587B0019000238DF8173094
:10B0D4002023ADF80C3000238DF80F30019B0022A3
:10B0E4001A70FFF74FFE0346002B00F093809DF883
:10B0F4001730002B06D103AB1946494832F0CCFB7C
:10B10400049005E003AB1946002032F0C5FB04901F
:10B11400049B002B72D0049832F014FB0346402B9E
:10B1240062D8049B002B5FD09DF81730002B07D109
:10B13400019B0133049A3B49184631F029F953E045
:10B144009DF81730012B0DD1019B4133049A3549E9
:10B15400184631F01DF9019B1B780133DAB2019BCB
:10B164001A7041E09DF81730022B0DD1019B8133F9
:10B17400049A2C49184631F00BF9019B1B780133D2
:10B18400DAB2019B1A702FE09DF81730032B0DD112
:10B19400019BC133049A2349184631F0F9F8019B05
:10B1A4001B780133DAB2019B1A701DE09DF8173049
:10B1B400042B0ED1019B03F20113049A194918467A
:10B1C40031F0E6F8019B1B780133DAB2019B1A7067
:10B1D4000AE0019B1B780133DAB2019B1A70049ACE
:10B1E4001149032000F0A6F89DF8173001338DF8BB
:10B1F4001730049B002B7FF47AAF00E000BF0B4BA9
:10B2040000221A604FF480620021054832F002FCEB
:10B21400012300E00023184607B05DF804FB00BFDB
:10B2240074E8002010FA050014FA050074EC0020FC
:10B2340000B5D7B005AB40F241120021184632F0F8
:10B24400E9FB05AB1846FFF73DFF0346002B23D06F
:10B2540056ABA3F5AA7305AA41321A6056ABA3F5FF
:10B26400AA7305AA81325A6056ABA3F5AA7305AA3C
:10B27400C1329A6056ABA3F5AA7305AA02F2011271
:10B28400DA6056ABA3F5A2731B78194601AA05AB85
:10B2940001331846FCF71AFA00BF57B05DF804FBF7
:10B2A40000B583B001202DF07CFB03460E4A1360E9
:10B2B4000D4B1B68002B01D1012310E04FF400411A
:10B2C40000202BF0E1FA0190019B0093009B002BDE
:10B2D40002D0009825F042FF2BF074FA012318469F
:10B2E40003B05DF804FB00BF94F0002008B5074BE1
:10B2F4001B684FF0FF3118462DF05AFD0346012B11
:10B3040001D0002300E00123184608BD94F000207A
:10B3140008B5074B18680023002200212DF05AFBC2
:10B324000346012B01D0002300E00123184608BD89
:10B3340094F000200EB400B58CB0039000230B935E
:10B344000023ADF82A30FFF7D1FF0346002B00F0AD
:10B35400DC80039B002B02D00D9B002B02D1FFF756
:10B36400D7FFD3E04FF4806200216B4832F052FBE8
:10B37400039B012B05D1694A6949674831F008F8F4
:10B3840018E0039B022B05D1664A6749624830F0F6
:10B39400FFFF0FE0039B042B05D1644A64495E4818
:10B3A40030F0F6FF06E0039B032B03D161495A48B2
:10B3B40030F0EEFF584832F0C5F90346ADF82A30B4
:10B3C4000EAB0893BDF82A30534A9818BDF82A30BA
:10B3D400C3F580631946089B0D9A31F006F84E4B6D
:10B3E4002E2283F8FC234C4B2E2283F8FD234A4B58
:10B3F4002E2283F8FE23484B002283F8FF2346487D
:10B4040032F0A0F90346ADF82A300023ADF8283015
:10B4140004AB10220021184632F0FCFA039B042BE3
:10B424001AD0039B042B1EDC039B022B03DC039B1F
:10B43400002B04DC17E0039B032B07D013E004ABC1
:10B444003D4A3E49184630F0A3FF0DE004AB3C49A9
:10B45400184630F09DFF07E004AB374A34491846DC
:10B4640030F096FF00E000BF04AB184632F06AF9F2
:10B474000346ADF82830BDF82820BDF82A30C3F5BE
:10B4840080639A420CDDBDF82830C3F58063224AFC
:10B494001344BDF8282004A9184632F089FA0CE0B8
:10B4A400BDF82A301C4A9818BDF82A30C3F58063C9
:10B4B400194604AB1E4A30F053FF174832F042F9E4
:10B4C4000346ADF82A30BDF82A30013318462CF073
:10B4D4000FFC0990BDF82A3001331A46002109985F
:10B4E40032F098FABDF82A301A460B49099832F01E
:10B4F4005FFA0999BDF82A2000230093002311481C
:10B5040013F090FCFFF704FF00E000BF0CB05DF8FF
:10B5140004EB03B0704700BF94EC002098FA0500D8
:10B52400A4FA0500ACFA0500B8FA0500C0FA050053
:10B53400CCFA0500D0FA0500D4FA0500DCFA0500BF
:10B54400E4FA0500050000050FB400B585B000233A
:10B55400ADF80A30FFF7CAFE0346002B49D0069B1C
:10B56400002B02D1FFF7D4FE44E04FF480620021A7
:10B57400234832F04FFA224832F0E4F80346DBB2B3
:10B58400ADF80A3007AB0193BDF80A301C4A1344E6
:10B59400019A0699184630F015FF194832F0D2F88E
:10B5A4000346ADF80A30174A174BD31ADB081B04BD
:10B5B40043F00503124A154918462BF035FC2BF0CD
:10B5C40095FC0346002BFAD10023039309E00C4AAF
:10B5D400039B13441B7818460CF092FE039B013323
:10B5E4000393BDF80A30039A9A42F0DBFFF790FE0A
:10B5F40000E000BF05B05DF804EB04B0704700BF85
:10B6040094EC0020C4DC050064DC0500CCFA0500E1
:10B6140000B5ADF2244D0DF58463A3F21443186014
:10B624000DF58463A3F5836319600DF58463A3F2B8
:10B634001C431A600023CDF81C340023CDF81834C1
:10B644000023CDF814340023CDF810340DF58463B1
:10B65400A3F583631B68002B03D14F48FFF774FFE6
:10B6640096E00DF58463A3F21C430DF58462A2F207
:10B674001C420DF58461A1F214411B68126809682B
:10B684004648FFF761FF0DF58463A3F21C431B6872
:10B694001B090133CDF810340023CDF81C3471E0BC
:10B6A40004AB4FF480620021184632F0B3F9DDF8A0
:10B6B4001C341A0104AB3A49184630F069FE0023E1
:10B6C400CDF818344AE004AB184632F03BF8024691
:10B6D40004AB98180DF58463A3F583631A68DDF849
:10B6E400143413441B781A462E4930F051FEDDF809
:10B6F40014340133CDF814340DF58463A3F21C43E0
:10B70400DDF814241B689A422DD2DDF81834013375
:10B7140003F00703002B0AD104AB184632F012F8E9
:10B72400024604AB13442049184630F031FEDDF8DC
:10B734001834013303F00F03002B0AD104AB18466D
:10B7440032F000F8024604AB13441849184630F0AE
:10B754001FFEDDF818340133CDF81834DDF8183441
:10B764000F2BB0D900E000BFDDF81834002B04D053
:10B7740004AB19460E48FFF7E7FEDDF81C3401332D
:10B78400CDF81C34DDF81C24DDF810349A4287D33C
:10B794000DF2244D5DF804FBE8FA050010FB0500EA
:10B7A40030FB050038FB050040FB050044FB0500A9
:10B7B40048FB050000B583B001900B46ADF802309C
:10B7C400074A019B1360064B1B68BDF80220114613
:10B7D400184600F027FA00BF03B05DF804FB00BF71
:10B7E40098F0002000B583B003468DF807300B4B6A
:10B7F4001B78012B05D19DF80730184600F08CF911
:10B8040008E0064B1B78022B04D19DF8073018463C
:10B8140000F020F900BF03B05DF804FBF8840020B9
:10B8240000B583B003468DF807300B4B1B78012B12
:10B8340005D19DF80730184600F082F908E0064B60
:10B844001B78022B04D19DF80730184600F010F93C
:10B8540000BF03B05DF804FBF884002000B583B09A
:10B864000190094B1B78012B03D1019800F07CF95E
:10B8740006E0054B1B78022B02D1019800F006F973
:10B8840000BF03B05DF804FBF884002000B583B06A
:10B894000346ADF806300B4B1B78012B05D1BDF8E0
:10B8A4000630184600F076F908E0064B1B78022BA8
:10B8B40004D1BDF80630184600F0F4F800BF03B018
:10B8C4005DF804FBF884002000B583B003468DF8CE
:10B8D40007300B4B1B78012B05D19DF80730184618
:10B8E40000F06CF908E0064B1B78022B04D19DF89C
:10B8F4000730184600F0E4F800BF03B05DF804FB1D
:10B90400F884002000B583B00190094B1B78012B0B
:10B9140003D1019800F066F906E0054B1B78022B71
:10B9240002D1019800F0DAF800BF03B05DF804FB1F
:10B93400F884002000B583B00346ADF806300B4B05
:10B944001B78012B05D1BDF80630184600F05CF9D0
:10B9540008E0064B1B78022B04D1BDF806301846CC
:10B9640000F0C6F800BF03B05DF804FBF8840020C3
:10B9740000B583B000230193054B1B78012B02D142
:10B9840000F070FA0190019B184603B05DF804FBC7
:10B99400F884002000B583B000230193054B1B7885
:10B9A400012B02D100F04EFD0190019B184603B01B
:10B9B4005DF804FBF884002000B583B000230193F4
:10B9C400054B1B78012B02D101F00EFA0190019B6B
:10B9D400184603B05DF804FBF884002000B583B07A
:10B9E40000230193054B1B78012B02D101F05AFC73
:10B9F4000190019B184603B05DF804FBF884002015
:10BA040000B583B000238DF80730074B1B78012B5A
:10BA140004D101F0B9FD03468DF807309DF80730D5
:10BA2400184603B05DF804FBF884002008B5084B01
:10BA34001B78012B03D100F019F9034605E0044BF0
:10BA44001B78022B01D10023FFE7184608BD00BF75
:10BA5400F884002082B003468DF80730034A9DF82D
:10BA64000730137000BF02B0704700BF9CF0002085
:10BA740082B003468DF80730034A9DF807301370EF
:10BA840000BF02B0704700BF9DF0002082B001905B
:10BA9400019BDAB2024B1A7000BF02B0704700BFBC
:10BAA4009EF0002082B00346ADF80630034ABDF88C
:10BAB4000630138000BF02B0704700BFA0F0002022
:10BAC40082B003468DF807309DF807309AB2024BD6
:10BAD4001A8000BF02B07047A0F0002082B001902D
:10BAE400024A019B136000BF02B07047A4F000201B
:10BAF40082B00346ADF80630034ABDF80630138021
:10BB040000BF02B0704700BFA8F00020014B1B78B3
:10BB140018467047D6F0002082B003468DF80730EF
:10BB2400034A9DF80730137000BF02B0704700BF8E
:10BB3400D6F00020014B1B7818467047D7F0002040
:10BB440082B003468DF80730034A9DF8073013701E
:10BB540000BF02B0704700BFD7F00020014B1B7834
:10BB640018467047D8F0002084B00190019B0393DD
:10BB7400039B002BB8BF5B42DAB2024B1A7000BFC2
:10BB840004B07047D8F00020014B1B88184670475A
:10BB9400DAF0002082B00346ADF80630034ABDF85F
:10BBA4000630138000BF02B0704700BFDAF00020F7
:10BBB400014B1B7818467047DCF0002082B0034626
:10BBC4008DF80730034A9DF80730137000BF02B0A8
:10BBD400704700BFDCF00020014B1B68184670471B
:10BBE400E0F0002082B00190024A019B136000BF84
:10BBF40002B07047E0F00020024B1B689BB218466D
:10BC0400704700BFE4F0002082B00346ADF8063070
:10BC1400BDF80630024A136000BF02B0704700BF8F
:10BC2400E4F0002000B583B001900B46ADF802307B
:10BC34000B4A019B13600B4ABDF8023013800A4B78
:10BC440000221A80064B1B68064A128800211846F7
:10BC540031F0E0FE00F068F800BF03B05DF804FBCB
:10BC6400ACF00020B0F00020B2F00020014B1B88A3
:10BC740018467047B2F0002000B589B00346009220
:10BC8400ADF806300B46ADF80430BDF80630059328
:10BC9400059B5BBA0493049B9BB2ADF80E30204B1A
:10BCA4001B68204A12881344BDF80E201A801D4BCD
:10BCB4001B8802339AB21B4B1A80BDF804300793D9
:10BCC400079B5BBA0693069B9BB2ADF80C30144BF2
:10BCD4001B68144A12881344BDF80C201A80114BB7
:10BCE4001B8802339AB20F4B1A80BDF80430002B24
:10BCF40012D00B4B1B680B4A12881344BDF8042066
:10BD04000099184631F054FE064B1A88BDF80430E9
:10BD140013449AB2034B1A8000BF09B05DF804FBC8
:10BD2400ACF00020B2F0002008B5054B00221A80C8
:10BD340020220021034831F06DFE00BF08BD00BF82
:10BD4400D4F00020B4F0002000B585B00346009183
:10BD54008DF807300023ADF80E30009B002B6CD01B
:10BD64009DF80730013B0A2B44D801A252F823F076
:10BD7400A1BD0200A9BD0200B1BD0200B9BD02000F
:10BD8400C1BD0200C9BD0200D1BD0200D9BD02007F
:10BD9400E1BD0200E9BD0200F1BD02000423ADF8DB
:10BDA4000E3028E00123ADF80E3024E00223ADF874
:10BDB4000E3020E00223ADF80E301CE00623ADF86F
:10BDC4000E3018E00223ADF80E3014E00123ADF874
:10BDD4000E3010E00623ADF80E300CE00223ADF86F
:10BDE4000E3008E00223ADF80E3004E00123ADF874
:10BDF4000E3000E000BF134B1B881A46124B13444D
:10BE04009DF807201A700F4B1B8801339AB20D4B13
:10BE14001A800C4B1B881A460B4B1344BDF80E209A
:10BE24000099184631F0C4FD064B1A88BDF80E304F
:10BE340013449AB2034B1A8000E000BF05B05DF8CA
:10BE440004FB00BFD4F00020B4F00020014B1B8899
:10BE540018467047D4F00020014B1846704700BFC5
:10BE6400B4F0002000B5BFB00AF0BEFD034628932D
:10BE7400289B1BBA249324AB1A4604210020FFF705
:10BE8400FBFE00238DF88F300DF18F031A4601213C
:10BE94004FF48170FFF7F0FE02232A932A9B5BBACA
:10BEA4002993299B9BB2ADF88C3023AB1A4602210F
:10BEB40040F20310FFF7E0FE02F0A4FE03462C93C9
:10BEC4002C9B5BBA2B932B9B9BB2ADF88A300DF164
:10BED4008A031A4602214FF48270FFF7CDFE02F066
:10BEE400A5FE03462E932E9B5BBA2D932D9B9BB2EE
:10BEF400ADF8883022AB1A46022140F20510FFF754
:10BF0400BBFE02F0A7FE03463093309B5BBA2F932F
:10BF14002F9B9BB2ADF886300DF186031A460221A1
:10BF24004FF48370FFF7A8FE02F0A8FE03468DF8D5
:10BF340085300DF185031A46012140F20710FFF701
:10BF44009BFE02F007FF03468DF8843002F018FFD1
:10BF540003468DF8833002F029FF03468DF88230C2
:10BF640002F03AFF03468DF8813002F04BFF03469E
:10BF74008DF8803002F05CFF03468DF87F3002F0CC
:10BF84006DFF03468DF87E3021AB1A4601214FF434
:10BF94008870FFF771FE0DF183031A46012140F208
:10BFA4001110FFF769FE0DF182031A4601214FF4C7
:10BFB4008970FFF761FE0DF181031A46012140F2F9
:10BFC4001310FFF759FE20AB1A4601214FF48A7073
:10BFD400FFF752FE0DF17F031A46012140F21510BE
:10BFE400FFF74AFE0DF17E031A4601214FF48B70D0
:10BFF400FFF742FE02F048FF03468DF87D3002F061
:10C0040065FF03468DF87C3002F082FF03468DF80D
:10C014007B3002F09FFF03468DF87A3002F0BCFFBC
:10C0240003468DF8793002F0D9FF03468DF8783055
:10C0340002F0F6FF03468DF877300DF17D031A46C2
:10C0440001214FF49070FFF717FE1FAB1A46012130
:10C0540040F22110FFF710FE0DF17B031A46012177
:10C064004FF49170FFF708FE0DF17A031A4601218F
:10C0740040F22310FFF700FE0DF179031A46012167
:10C084004FF49270FFF7F8FD1EAB1A46012140F2FF
:10C094002510FFF7F1FD0DF177031A4601214FF446
:10C0A4009370FFF7E9FD02F0D1FF03468DF8763077
:10C0B4000DF176031A4601214FF49870FFF7DCFD69
:10C0C40002F0DAFF03468DF8753002F0EBFF034609
:10C0D4003293329B5BBA3193319B9BB2ADF8723091
:10C0E40002F0F6FF03463493349B5BBA3393339BDD
:10C0F4009BB2ADF870300DF175031A46012140F280
:10C104003110FFF7B9FD0DF172031A4602214FF405
:10C114009970FFF7B1FD1CAB1A46022140F23310AF
:10C12400FFF7AAFD02F0EAFF03468DF86F3002F034
:10C13400FBFF03463693369B5BBA3593359B9BB224
:10C14400ADF86C3003F006F803463893389B5BBABD
:10C154003793379B9BB2ADF86A300DF16F031A46E3
:10C1640001214FF49A70FFF787FD1BAB1A46022199
:10C1740040F23510FFF780FD0DF16A031A460221E3
:10C184004FF49B70FFF778FD02F0FAFF03468DF839
:10C19400693003F00BF803468DF868300DF169033C
:10C1A4001A46012140F23710FFF766FD1AAB1A4612
:10C1B40001214FF49C70FFF75FFD03F00DF8034677
:10C1C4008DF8673003F01EF803468DF8663003F0EF
:10C1D4002FF803468DF865300DF167031A460121E7
:10C1E40040F23910FFF748FD0DF166031A460121AC
:10C1F4004FF49D70FFF740FD0DF165031A460121D0
:10C2040040F23B10FFF738FD03F028F803468DF8A1
:10C21400643003F039F803463A933A9B5BBA399396
:10C22400399B9BB2ADF8623003F044F803463C936B
:10C234003C9B5BBA3B933B9B9BB2ADF8603019AB24
:10C244001A4601214FF49E70FFF716FD0DF16203AB
:10C254001A46022140F23D10FFF70EFD18AB1A46B4
:10C2640002214FF49F70FFF707FD03F039F80346EE
:10C274008DF85F300DF15F031A4601214FF4A07071
:10C28400FFF7FAFC03F042F803468DF8F6300DF19F
:10C294005F031A4601214FF4A060FFF7EDFC002371
:10C2A4008DF8F73014E09DF8F730184603F044F8A1
:10C2B40003468DF85D300DF15D031A46012140F20D
:10C2C4000150FFF7D9FC9DF8F73001338DF8F730B2
:10C2D4009DF8F7209DF8F6309A42E4D3FFF716FC58
:10C2E40003468DF85E300DF15E031A46012140F2DB
:10C2F4000250FFF7C1FC9DF85E30012B40F09280A4
:10C3040003F060F803468DF85C3017AB1A46012140
:10C3140040F20350FFF7B0FC01AB21220021184684
:10C3240031F078FB01AB184603F062F801AB184614
:10C3340031F008FA03469BB201AA194640F20450B0
:10C34400FFF79AFC11AB15220021184631F062FB6D
:10C3540011AB184603F080F811AB1A46142140F2D1
:10C364000550FFF789FC0DAB184603F0A1F80DAB9F
:10C374001A460F2140F20650FFF77EFCFFF7DAFB66
:10C3840003468DF833300DF133031A46012140F290
:10C394000750FFF771FCFFF7E1FB03468DF83230DD
:10C3A4000DF132031A4601214FF4A160FFF764FC3A
:10C3B400FFF7EAFB0346ADF830300CAB1A46022116
:10C3C40040F20950FFF758FCFFF7F2FB0346ADF8C3
:10C3D4002E300DF12E031A46012140F20A50FFF7C8
:10C3E4004BFCFFF7F9FB03462593259B1BBA0A93E5
:10C3F4000AAB1A46042140F20B50FFF73DFCFFF74D
:10C40400FBFB03462793279B5BBA2693269B9BB291
:10C41400ADF826300DF126031A46032140F20C50E4
:10C42400FFF72AFC054B1B881A4605490320FEF733
:10C4340081FF012318463FB05DF804FBB2F00020F1
:10C4440050FB050010B5CAB00023ADF826318F4B60
:10C4540000221A808E4B00221A808E4B00221A80F2
:10C464000AF0C2FA03463D933D9B1BBA239323ABC8
:10C474001A4604210020FFF7FFFB00238DF88B30C0
:10C484000DF18B031A46012140F24110FFF7F4FB32
:10C494000023ADF888300023ADF886300DF1860214
:10C4A40022AB114618460FF0CBF9BDF986303F9305
:10C4B4003F9B5BBA3E933E9B9BB2ADF8843021AB6D
:10C4C4001A4602214FF4A170FFF7D6FBFFF71EFBBB
:10C4D40003468DF883300DF183031A46012140F29F
:10C4E4000250FFF7C9FBFFF739FB03468DF8823092
:10C4F4000DF182031A4601214FF4A160FFF7BCFB42
:10C50400FFF742FB0346ADF8803020AB1A46022108
:10C5140040F20950FFF7B0FBFFF74AFB0346ADF8C2
:10C524007E300DF17E031A46012140F20A50FFF7D6
:10C53400A3FBFFF751FB03464093409B1BBA1E939A
:10C544001EAB1A46042140F20B50FFF795FBFFF790
:10C5540053FB03464293429B5BBA4193419B9BB27C
:10C56400ADF876300DF176031A46032140F20C50F3
:10C57400FFF782FB484B1A88484B1B88D31A9BB29F
:10C58400ADF826310523ADF81A31BDF82621BDF8E2
:10C594001A31D31A9BB2ADF826310523ADF82431F4
:10C5A400BDF824310533ADF8243102F08FFC034685
:10C5B400002B04D0BDF824310333ADF8243102F04C
:10C5C400A7FC0346002B04D0BDF824310333ADF897
:10C5D400243102F0E1FC0346002B04D0BDF82431E1
:10C5E4000733ADF8243102F0F9FC0346002B04D0E4
:10C5F400BDF824310333ADF8243102F0ABFC03461B
:10C60400002B04D0BDF824310233ADF8243102F0FC
:10C6140007FD0346002B04D0BDF824310733ADF8E1
:10C624002431BDF92621BDF8243192FBF3F38DF8B2
:10C63400193104F00FFF03461AB2164B1A80154B3A
:10C64400B3F900301A469DF8193115490320FEF755
:10C6540071FE104BB3F900301A469DF819319A4215
:10C6640004DD9DF819311AB20A4B1A80094BB3F94B
:10C674000030002B40F32F81064A012140F2024092
:10C68400FFF7FAFA00238DF823311CE1E8F00020CB
:10C69400EAF00020ECF00020B0F00020B2F000201E
:10C6A40078FB05009DF823216B461146184604F0DB
:10C6B40067FFFFF739FB4AABA3F594731C680AF0D4
:10C6C400B3F802464AABA3F594731B68D31A1B094B
:10C6D400A34AA2FB0323DB0923441C931C9B3C9326
:10C6E4003C9B1BBA1C931CAB19460120FFF72CFB87
:10C6F40002F0ECFB0346002B14D04AABA3F5947371
:10C70400B3F904303B933B9B5BBA3A933A9B1AB21E
:10C714004AABA3F594739A806B46043319460320FD
:10C72400FFF712FB02F0F4FB0346002B16D04AABD2
:10C73400A3F59473B3F907301BB23993399B5BBAF1
:10C744003893389B1AB24AABA3F59473A3F8072025
:10C754006B46073319460420FFF7F6FA02F01CFC77
:10C764000346002B38D04AABA3F59473B3F90930D0
:10C774001BB23393339B5BBA3293329B1AB24AABEC
:10C78400A3F59473A3F809204AABA3F59473B3F902
:10C794000B301BB23593359B5BBA3493349B1AB27E
:10C7A4004AABA3F59473A3F80B204AABA3F5947397
:10C7B400B3F90D301BB23793379B5BBA3693369B74
:10C7C4001AB24AABA3F59473A3F80D206B46093350
:10C7D40019460520FFF7B8FA02F000FC0346002BC7
:10C7E40016D04AABA3F59473B3F815309BB23193CA
:10C7F400319B5BBA3093309B9AB24AABA3F59473E6
:10C80400A3F815206B46153319460620FFF79CFA4A
:10C8140002F0A0FB0346002B05D06B4606331946F5
:10C824000720FFF791FA02F0FBFB0346002B38D0F8
:10C834004AABA3F59473B3F90F301BB22B932B9B24
:10C844005BBA2A932A9B1AB24AABA3F59473A3F852
:10C854000F204AABA3F59473B3F911301BB22D9397
:10C864002D9B5BBA2C932C9B1AB24AABA3F5947301
:10C87400A3F811204AABA3F59473B3F913301BB298
:10C884002F932F9B5BBA2E932E9B1AB24AABA3F520
:10C894009473A3F813206B460F3319460820FFF74F
:10C8A40053FAFFF7D3FA03461C46FFF7D5FA0346BB
:10C8B4001A46214640F20340FFF7DEF99DF8233182
:10C8C40001338DF823319DF82331264AB2F9002033
:10C8D4009342FFF6E7AE244B1B881A46234B1B8872
:10C8E400D31A1A4622490320FEF724FD1E4B1A8848
:10C8F4001E4B1B88D31A9BB2ADF826310523ADF825
:10C9040016311323ADF81431BDF82621BDF81631C4
:10C91400D31A9BB2ADF8263104F024F803461AB2B8
:10C92400144B1A80134BB3F900301A4612490320F2
:10C93400FEF700FDBDF92621BDF814319A426FDDE2
:10C944000C4BB3F90030002B6ADD0A4A01214FF485
:10C954004070FFF791F90023ADF820314EE000BF9D
:10C96400C55A7C0AECF00020B0F00020B2F00020A0
:10C97400BCFB0500E8F00020E8FB0500BDF8203111
:10C98400DAB214AB1146184604F082F8149B2593CE
:10C99400259B1BBA189300238DF86430159B2693AE
:10C9A400269B1BBACDF86530169B2793279B1BBA91
:10C9B400CDF86930BDF85C302993299B5BBA289384
:10C9C400289B9BB2ADF86D3018AB1A460F2140F28C
:10C9D4000130FFF751F9BDF82621BDF81431D31AFF
:10C9E4009BB2ADF82631BDF92621BDF814319A4227
:10C9F4000CDBBDF820310133ADF82031BDF8203116
:10CA0400A84AB2F900209342B8DB00E000BFBDF8A9
:10CA14002021A44BB3F90030A3490320FEF78AFC7C
:10CA2400A24B1B881A46A24B1B88D31A1A46A1494B
:10CA34000320FEF77FFC9D4B1A889D4B1B88D31A5D
:10CA44009BB2ADF826310523ADF81231BDF826218D
:10CA5400BDF81231D31A9BB2ADF8263103F0CCFAEB
:10CA64000346ADF81031BDF810311A46924903203F
:10CA7400FEF760FCBDF81031002B00F07C81002330
:10CA8400ADF84E30BDF82631ADF81E310023ADF8B7
:10CA94004E3089E0BDF84E30DAB210AB114618467C
:10CAA40003F040FBBDF81E31053B9BB2ADF81E31CF
:10CAB4009DF84430013B0A2B65D801A252F823F0BB
:10CAC400F1CA0200FFCA02000DCB02001BCB020018
