:020000022000DC
:10700000000004201972020001720200F5DE040083
:1070100005720200077202000972020000000000FF
:10702000000000000000000000000000A90C0500A6
:107030000D72020000000000CD0C0500117202006C
:10704000E138040013720200F13804008168040082
:107050009968040013720200C9330400894B0400CC
:107060001372020013720200137202002D48040012
:1070700013720200137202001372020013720200F4
:10708000259D0400351105001372020013720200E1
:1070900013720200137202007107050013720200DE
:1070A00013720200137202001372020013720200C4
:1070B00029430400137202000000000000000000D9
:1070C0001372020013720200137202006D5A040060
:1070D0001372020013720200137202000191040085
:1070E0000174040013720200137202000000000019
:1070F0000000000013720200000000001372020082
:10710000000000000000000000000000000000007F
:10711000000000000000000000000000000000006F
:10712000000000000000000000000000000000005F
:10713000000000000000000000000000000000004F
:10714000000000000000000000000000000000003F
:10715000000000000000000000000000000000002F
:10716000000000000000000000000000000000001F
:10717000000000000000000000000000000000000F
:1071800000000000000000000000000000000000FF
:1071900000000000000000000000000000000000EF
:1071A00000000000000000000000000000000000DF
:1071B00000000000000000000000000000000000CF
:1071C00000000000000000000000000000000000BF
:1071D00000000000000000000000000000000000AF
:1071E000000000000000000000000000000000009F
:1071F000000000000000000000000000000000008F
:10720000FEE7FEE7FEE7FEE7FEE7FEE7FEE7FEE756
:10721000FEE7FEE700F002B8FFF7FCBF0F484FF0B3
:107220000701884385460E4880470E48016841F4AF
:1072300070010160BFF34F8FBFF36F8F00F01AB87A
:1072400009480A490A4A884207D0521A05D00378E9
:1072500001300B700131013AF9D170470000042070
:10726000710F040088ED00E03C680500E82A00206A
:10727000E82A00203A493B480A1A02D007229143E3
:107280008D46394939480A1A06D00722914381F3BD
:107290000988022282F3148835483649364A00F0BC
:1072A00041F836483649374A00F03CF83648374905
:1072B000374A00F037F837483749384A00F032F893
:1072C00037483849384A00F02DF838483849394AA3
:1072D00000F028F838483949394A00F023F839488D
:1072E0003949002200F036F838483949002200F0C8
:1072F00031F838483849091A2EF0A6FF374A904726
:1073000025482649884205D00268043003B49047D6
:1073100003BCF7E700208646EC4600200021304AF7
:107320009047FEE7884214D0521A12D003460B430E
:1073300013430324234206D1036804300B60043155
:10734000043AF9D17047037801300B700131013AEA
:10735000F9D17047884202D002700130FAE77047D5
:107360000000042000E003200000042000000420AE
:10737000C0D20500E82A0020008E0020E47302003D
:10738000E473020008670500C0D20500E82A002067
:10739000E82A00203C6805003C6805003C680500C0
:1073A0003C6805003C6805003C6805003C68050039
:1073B0003C680500BDD20500D8350600008E0020CF
:1073C000008E0020008E002070FD012070FD012045
:1073D00078FD012078FD0120781D02204172020015
:0473E0005D0B04003D
:1073E400BFF34F8F00BF064BDB6803F4E062044930
:1073F400044B1343CB60BFF34F8F00BF00BFFDE7C7
:1074040000ED00E00400FA0582B00190019B1B68C6
:107414001F2B02D84FF0A04306E0019B1B6803F02A
:107424001F02019B1A60024B184602B0704700BF4E
:107434000003005000B585B00190084611461A4675
:1074440003468DF803300B468DF8023013468DF851
:10745400013001AB1846FFF7D7FF03909DF80320D6
:107464009DF802305B001A439DF801309B001A43DB
:107474009DF818301B0242EA03019DF81C301B04DE
:10748400019A1943039B02F5E07243F8221000BFEE
:1074940005B05DF804FB00B585B0039000230193AB
:1074A400002300930023012201210398FFF7C2FF68
:1074B40000BF05B05DF804FB00B585B0019001ABD9
:1074C4001846FFF7A1FF0390019B012202FA03F380
:1074D4001946039800F018F800BF05B05DF804FBE6
:1074E40000B585B0019001AB1846FFF78DFF0390FE
:1074F400019B012202FA03F31946039800F00EF8E7
:1075040000BF05B05DF804FB82B001900091019BBF
:10751400009AC3F8082500BF02B0704782B00190FA
:107524000091019B009AC3F80C2500BF02B070477C
:1075340000B5BDB001F098FA3B9000F075FD3A90AB
:1075440001F0E0FC399000F061FC389001F0CEFECF
:10755400379001ABD822002118462EF0E7FF274BC5
:107564000193274B0493274B0593274B0793274BF2
:107574000A93274B0B93274B0D9301238DF83C3033
:10758400254B1093254B1193254B1393254B1693A1
:10759400254B17933A9B1893244B1993244B1C9314
:1075A400244B1D933B9B1E93234B1F93234B2293EE
:1075B400234B2393399B2493224B2593224B2893CB
:1075C400224B2993389B2A93214B2B93214B2E93A7
:1075D400214B2F93379B3093D82029F031F9034660
:1075E4001E4A13601D4B1B6801A9D82218462EF0B1
:1075F4006BFF00BF3DB05DF804FB00BF3C680500B5
:10760400B1770200446805004C6805007D780200EB
:107614005468050064680500897802006C680500F8
:107624007C68050039800200806805009C680500BC
:10763400458E0200A0680500B0680500158F0200A1
:10764400B8680500C86805001D7E0200D068050002
:10765400E0680500FD920200E8680500008E002045
:1076640010B586B0039002910192214B1B680593DB
:1076740002E0059B18330593059B1B68002B0FD074
:10768400059B1C68059B1B6818462EF0E7FD034606
:107694001A46039920462EF013FE0346002BE8D128
:1076A400059B1B68002B09D11249022002F056FEEB
:1076B4001149052002F052FE012315E0059B5B6889
:1076C400029A9A4205DA0D49012002F047FE01238D
:1076D4000AE0059BDB680199029898470346002B52
:1076E4000CBF01230023DBB2184606B010BD00BF57
:1076F400008E00200069050010690500146905006A
:1077040000B585B00190002303932449052002F0BD
:1077140025FE2349052002F021FE27E0039A1346A3
:107724005B001344DB001A46019B13441B7A83F06D
:107734000103DBB2002B16D0039A13465B001344FB
:10774400DB001A46019B13441968039A13465B0035
:107754001344DB001A46019B13441B690A46114972
:10776400052002F0FBFD039B01330393039A1346A8
:107774005B001344DB001A46019B13441B68002B77
:10778400CCD10649052002F0E9FD0749052002F0A5
:10779400E5FD00BF05B05DF804FB00BF2C690500E2
:1077A400706905008C6905001069050010B584B086
:1077B40001900091009B1B68002B09D0009B1B6863
:1077C400029300238DF80F3000238DF80E3037E03C
:1077D40001234BE0274B19689DF80F2013465B00EB
:1077E4001344DB000B441C68224B19689DF80F20DE
:1077F40013465B001344DB000B441B6818462EF051
:107804002DFD03461A46214602982EF059FD0346E3
:10781400002B10D1174B19689DF80F2013465B00FD
:107824001344DB000B445B691846FFF769FF01232F
:107834008DF80E3010E09DF80F3001338DF80F30C5
:107844000C4B19689DF80F2013465B001344DB00B2
:107854000B441B68002BBDD19DF80E30002B04D1C6
:10786400044B1B681846FFF74BFF0023184604B06F
:1078740010BD00BF008E002000B583B001900091C0
:10788400FFF7AEFD00B5A3B003900291029B1B6805
:10789400002B08D0029B1B681D93029B04331B68BA
:1078A400002B0BD001E00123D3E1029B5B681C9306
:1078B400029B08331B68002B64D001E00123C8E15C
:1078C400029B9B681B93A94AA949032002F046FD29
:1078D4001D9B1B78303B272B00F2B98101A252F883
:1078E40023F000BF8D79020093790200A57902008C
:1078F400177A0200717A0200837A0200537C020034
:107904009D7A0200A37A0200B97A0200537C020035
:10791400537C0200537C0200537C0200537C02001F
:10792400537C0200537C0200537C0200537C02000F
:10793400537C0200CF7A0200537C0200537C020085
:10794400537C0200537C0200537C0200537C0200EF
:10795400537C0200537C0200117B0200537C020022
:10796400537C0200537C0200537C02002B7B0200F8
:10797400537C0200537C0200537C0200537C0200BF
:10798400E17A0200012364E105F0BCF860E1002320
:107994000093002300220021764812F069FA57E18F
:1079A400002315930A2200211C982BF0AEFD0346F8
:1079B40015930023219327E00AF03AF80246219B0D
:1079C40013440A3B11936C4B12936C4B1393002397
:1079D400ADF8503006F064F911981299139ABDF875
:1079E400503006F067F906F07DF9119A1299139B4D
:1079F400BDF85000019000930B466149032002F04A
:107A0400ADFC219B01332193219B159A9A42D3D833
:107A14001EE1002316930A2200211C982BF075FD09
:107A2400034616930DAB1022002118462EF07EFD5E
:107A34000023209315E0209BDAB20DAB11461846C3
:107A440006F068FA0D9A0E990F9BBDF8400001905C
:107A540000930B464B49032002F080FC209B01332A
:107A64002093209B169A9A42E5D8F1E006F0B4F9E7
:107A74001790179A4449032002F070FCE8E00023B1
:107A840018930A2200211C982BF03FFD03461893FB
:107A9400189806F0B3FADBE005F048FED8E00420BD
:107AA400FFF7F9FC0420FFF707FD3849032002F033
:107AB40055FCCDE00420FFF7EEFC0420FFF710FD99
:107AC4003349032002F04AFCC2E000230093002360
:107AD400002200212F4811F01BFFB9E000231F935F
:107AE4000AE0002300930023002200212A4816F014
:107AF4000DFD1F9B01331F930A2200211C982BF0BC
:107B040004FD02461F9B9342EBDBA1E00023199383
:107B14000A2200211C982BF0F8FC034619931998AB
:107B240006F0F6FF94E000231A930A2200211C9821
:107B34002BF0EBFC03461A9300231E9381E005AB64
:107B44002022002118462EF0F1FC1E9BDAB205AB70
:107B54001146184606F072FF0346012B20D00F4948
:107B6400012002F0FBFB002373E000BF646B0500FF
:107B74009C690500060000013C3B390052DFC1004E
:107B8400A4690500DC690500186A0500306A05006F
:107B94003C6A050000000105000002034C6A050070
:107BA4002E49032002F0DAFB059B1A462C490320D8
:107BB40002F0D4FBBDF918301A462A49032002F01A
:107BC400CDFB9DF81A301A462749032002F0C6FB64
:107BD400BDF91B301BB21A462449032002F0BEFB38
:107BE400BDF91D301BB21A46BDF91F301BB2194630
:107BF400BDF921301BB200930B461D49032002F04E
:107C0400ADFBBDF923301BB21A46BDF925301BB2BA
:107C14001946BDF927301BB200930B4615490320C2
:107C240002F09CFBBDF829309BB21A46124903208E
:107C340002F094FB1149032002F090FB1E9B0133D8
:107C44001E931E9A1A9B9A42FFF479AF00E000BF7C
:107C54000123184623B05DF804FB00BF6C6A0500DD
:107C6400906A0500A86A0500BC6A0500D06A050090
:107C7400E46A0500086B05002C6B0500406B0500E9
:107C840082B00190019B1B681F2B02D84FF0A043C8
:107C940006E0019B1B6803F01F02019B1A60024B64
:107CA400184602B0704700BF0003005000B585B00D
:107CB4000190084611461A4603468DF803300B46D8
:107CC4008DF8023013468DF8013001AB1846FFF7EA
:107CD400D7FF03909DF803209DF802305B001A4300
:107CE4009DF801309B001A439DF818301B0242EAAC
:107CF40003019DF81C301B04019A1943039B02F5F0
:107D0400E07243F8221000BF05B05DF804FB00B533
:107D140085B00390002301930023009300230122E4
:107D240001210398FFF7C2FF00BF05B05DF804FB13
:107D340000B585B003900B468DF80B309DF80B30E1
:107D44000022019200220092002200210398FFF7F2
:107D5400ADFF00BF05B05DF804FB00B585B0019030
:107D640001AB1846FFF78CFF0390019B012202FA36
:107D740003F31946039800F035F800BF05B05DF829
:107D840004FB00B585B0019001AB1846FFF778FFFE
:107D94000390019B012202FA03F31946039800F0B1
:107DA4002BF800BF05B05DF804FB00B585B0019069
:107DB40001AB1846FFF764FF0390039800F00AF83C
:107DC4000246019B22FA03F303F00103184605B0AF
:107DD4005DF804FB82B00190019BD3F8103518467E
:107DE40002B0704782B001900091019B009AC3F8E1
:107DF400082500BF02B0704782B001900091019B3A
:107E0400009AC3F80C2500BF02B07047014B184616
:107E1400704700BFE82A002010B584B0019000919B
:107E2400009B1B68002B09D0009B1B680293002356
:107E34008DF80F3000238DF80E3037E0012348E031
:107E44009DF80F20244913465B001344DB000B44C8
:107E54001C689DF80F20204913465B001344DB0087
:107E64000B441B6818462EF0F9F903461A462146BE
:107E740002982EF025FA0346002B12D19DF80F200C
:107E8400154913465B001344DB000B440C331B6899
:107E9400009A043211460198984701238DF80E3058
:107EA4000FE09DF80F3001338DF80F309DF80F204F
:107EB400094913465B001344DB000B441B68002B89
:107EC400BED19DF80E30002B02D10348FFF718FCF9
:107ED4000123184604B010BDE82A002000B585B07F
:107EE40001900091009B1B680A22002118462BF088
:107EF4000CFB03468DF80F30009B04331B680222F1
:107F0400154918462EF0DCF90346002B06D19DF8DE
:107F14000F3000211846FFF70BFF0FE0009B0433DE
:107F24001B6803220D4918462EF0CAF90346002B9C
:107F340004D19DF80F301846FFF7E9FE9DF80F2095
:107F4400009B04331B680649032002F007FA002350
:107F5400184605B05DF804FB086C05000C6C0500C0
:107F6400106C050000B585B001900091009B1B6862
:107F74000A22002118462BF0C8FA034603930398FB
:107F8400FFF713FF0290029B002B01D0064B00E089
:107F9400064B039A0649032002F0E0F90023184631
:107FA40005B05DF804FB00BF2C6C0500346C0500C3
:107FB400386C050000B585B001900091009B1B68EA
:107FC4000A22002118462BF0A0FA03460393009BD3
:107FD40004331B680A22002118462BF096FA034644
:107FE4000293029B002B03D10398FFF7CAFE05E01E
:107FF400029B012B02D10398FFF7AFFE029B002BDB
:1080040001D0064B00E0064B039A0649032002F018
:10801400A5F90023184605B05DF804FB2C6C050097
:10802400346C0500586C0500014B1846704700BFBE
:10803400482B002010B584B001900091009B1B6870
:10804400002B09D0009B1B68029300238DF80F308E
:1080540000238DF80E3037E0012348E09DF80F200F
:10806400244913465B001344DB000B441C689DF851
:108074000F20204913465B001344DB000B441B68AC
:1080840018462EF0EBF803461A46214602982EF0C5
:1080940017F90346002B12D19DF80F2015491346FA
:1080A4005B001344DB000B440C331B68009A04325E
:1080B40011460198984701238DF80E300FE09DF882
:1080C4000F3001338DF80F309DF80F200949134606
:1080D4005B001344DB000B441B68002BBED19DF8EE
:1080E4000E30002B02D10348FFF70AFB0123184688
:1080F40004B010BD482B002000B589B00390029154
:10810400029B1B680322374918462EF0D9F8034610
:10811400002B22D1029B04331B68022232491846E9
:108124002EF0CEF80346002B06D10FF03FFA2F496C
:10813400032002F013F910E0029B04331B680322AE
:108144002B4918462EF0BCF80346002B05D10FF03E
:1081540032FA2849032002F001F9029B1B6803222A
:10816400254918462EF0ACF80346002B0FD1029B8C
:1081740004331B680A22002118462BF0C6F9034673
:108184000793079B9BB218460FF01AFA25E00023C9
:10819400ADF81A300023ADF818300023ADF81630CE
:1081A4000023ADF8143005AB0DF1160206A90DF14C
:1081B4001A000FF0CFF9BDF91A301946BDF918307D
:1081C4001846BDF91630BDF91420019200930346F8
:1081D4000A460A49032002F0C1F80023184609B0F0
:1081E4005DF804FB9C6F0500A06F0500A46F0500FB
:1081F400C46F0500C86F0500E86F0500EC6F05004B
:1082040000B585B001900091009B1B6802221C49B7
:1082140018462EF055F80346002B06D110F034F919
:108224001849032002F09AF825E0009B1B680322FA
:10823400154918462EF044F80346002B06D110F0D9
:108244002AF91249032002F089F814E00023ADF85A
:108254000E3000238DF80D300DF10D020DF10E03DB
:108264001146184610F0C6F9BDF90E301A460849F1
:10827400032002F073F80023184605B05DF804FBF0
:10828400A06F050018700500C46F05002C70050070
:108294004070050000B585B001900091009B1B68FB
:1082A40002221A4918462EF00BF80346002B06D179
:1082B4000FF0B6FC1649032002F050F820E0009BB2
:1082C4001B680322134918462DF0FAFF0346002BBE
:1082D40006D10FF0AAFC1049032002F03FF80FE08A
:1082E400002303930023029302AA03AB114618460A
:1082F4000FF08AFC029A039B0849032002F02EF82F
:108304000023184605B05DF804FB00BFA06F05000C
:1083140054700500C46F0500647005007470050096
:1083240000B585B001900091009B1B6802221C4996
:1083340018462DF0C5FF0346002B06D110F0A4F813
:108344001849032002F00AF825E0009B1B68032269
:10835400154918462DF0B4FF0346002B06D110F042
:108364009AF81249032001F0F9FF14E00023ADF854
:108374000E3000238DF80D300DF10D020DF10E03BA
:108384001146184610F036F99DF80D301A46084982
:10839400032001F0E3FF0023184605B05DF804FB59
:1083A400A06F0500A4700500C46F0500B47005003B
:1083B400C470050000B585B00190009100230393BB
:1083C4000FF010FC0390039A0449032001F0C6FF48
:1083D4000023184605B05DF804FB00BFD470050007
:1083E40030B58FB00790069100230D9300230C93B2
:1083F400069B1B680322504918462DF061FF034673
:10840400002B54D1069B04331B680A220021184612
:108414002BF07BF803460D93069B04331B680A225A
:10842400002118462BF071F803460C930D9809F0BF
:10843400D5FB0C9809F046FA0AAB19460D9807F0DB
:108444005FFF08AB19460C9807F05AFFBDF82830B7
:108454001D469DF82A309DF82B209DF82C109DF880
:108464002D009DF82E4004940390029101920093F4
:108474002B460D9A3149032001F070FFBDF82030DE
:108484001D469DF822309DF823209DF824109DF868
:1084940025009DF8264004940390029101920093D4
:1084A4002B460C9A2649032001F058FF3FE009F0BF
:1084B4009FFB0D9009F0BCFA0C900AAB19460D987D
:1084C40007F01EFF08AB19460C9807F019FFBDF81A
:1084D40028301D469DF82A309DF82B209DF82C103D
:1084E4009DF82D009DF82E40049403900291019272
:1084F40000932B460D9A1349032001F02FFFBDF87A
:1085040020301D469DF822309DF823209DF824102C
:108514009DF825009DF82640049403900291019251
:1085240000932B460C9A0849032001F017FF0023FF
:1085340018460FB030BD00BFE8700500EC700500B0
:10854400247105005C7105009071050000B585B0CB
:1085540001900091009B1B6802222B4918462DF0C4
:10856400AFFE0346002B06D12849032001F0F6FE96
:108574000EF0FEFC42E0009B1B68032224491846CF
:108584002DF09EFE0346002B06D12249032001F064
:10859400E5FE0EF0F3FC31E0009B1B680A2200218B
:1085A40018462AF0B2FF03460393009B04331B686A
:1085B4000A22002118462AF0A8FF03460293029BD0
:1085C400039A1549032001F0C9FE039B002B0AD12D
:1085D4000EF0CEFC642009F08FF8662029F00CFD23
:1085E4000EF0CCFC0AE0029B002B03D1642009F0BE
:1085F40083F803E00299039809F064F8002318460D
:1086040005B05DF804FB00BFA06F0500C471050050
:10861400C46F0500D0710500E071050000B58DB090
:1086240003900291029B1B6802227F4918462DF099
:1086340047FE0346002B06D108F0F2F808F086FB4B
:1086440008F022F9EAE0029B1B68032277491846E6
:108654002DF036FE0346002B02D108F001F9DDE0CF
:10866400029B1B680522724918462DF029FE034619
:10867400002B06D108F0F6FE08F068FB08F004F9B8
:10868400CCE0029B1B6805226A4918462DF018FEAF
:108694000346002B06D108F0F1FE08F057FB08F062
:1086A400F3F8BBE0029B1B680422634918462DF0D3
:1086B40007FE0346002B1BD10023ADF82430002312
:1086C400ADF826305D4B9B889BB2ADF828305B4BF0
:1086D400DB889BB2ADF82A30584B186809AB93E895
:1086E400060008F06FFE08F031FB08F0CDF895E0C5
:1086F400029B1B680522524918462DF0E1FD0346F2
:10870400002B12D14F4A07AB92E8030083E8030021
:10871400012301930023009307AB0CCB05214848A8
:1087240008F0ACFC08F0B0F878E0029B1B68052266
:10873400454918462DF0C4FD0346002B17D1029B72
:1087440004331B681022002118462AF0DEFE03467B
:108754008DF82E309DF82E30184608F09BFE9DF8BB
:108764002E301A463949032001F0F8FD56E0029BE9
:108774001B680822364918462DF0A2FD0346002B3B
:1087840017D1029B04331B681022002118462AF0DB
:10879400BCFE03468DF82F309DF82F30184608F0A4
:1087A4008AFE9DF82F301A462849032001F0D6FD91
:1087B40034E0029B1B680222264918462DF080FDF6
:1087C4000346002B2AD1244B9B889BB2C3F1800320
:1087D400DA0F13445B109BB2ADF814301E4BDB88E8
:1087E4009BB2C3F1A003DA0F13445B109BB2ADF844
:1087F4001630194B9B889BB2ADF81830164BDB88AA
:108804009BB2ADF81A30144B186805AB93E8060018
:1088140008F0D8FD08F09AFA08F036F80023184654
:108824000DB05DF804FB00BFA06F0500C46F050028
:10883400087205001072050018720500D890050032
:10884400207205005C720500287205003072050074
:108854004C720500587205005499050000B583B0A8
:1088640001900091009B1B6807221B4918462DF0BC
:1088740027FD0346002B07D101200AF0BBFE174950
:10888400032001F06BFD22E0009B1B6803221449C6
:1088940018462DF015FD0346002B07D102200AF0DF
:1088A400A9FE1049032001F059FD10E0009B1B684C
:1088B40005220D4918462DF003FD0346002B06D171
:1088C40003200AF097FE0949032001F047FD002325
:1088D400184603B05DF804FBE46E050064720500FD
:1088E400787205007C7205008C7205009472050094
:1088F40000B583B001900091009B1B6802220F49D0
:1089040018462DF0DDFC0346002B02D10EF0E1F9F0
:108914000EE0009B1B680322094918462DF0D0FC89
:108924000346002B02D10EF0E0F901E00EF0EAF963
:108934000023184603B05DF804FB00BFA06F0500D8
:10894400C46F050000B585B001900091009B1B68C1
:1089540002221D4918462DF0B3FC0346002B06D114
:108964000EF02AF81949032001F0F8FC26E0009BD8
:108974001B680322164918462DF0A2FC0346002B5F
:1089840006D10EF06BF81349032001F0E7FC15E063
:108994000023ADF80E300023ADF80C3003AA0DF11E
:1089A4000E03114618460DF0C1FFBDF90C301A46EE
:1089B400BDF90E300849032001F0D0FC002318460D
:1089C40005B05DF804FB00BFA06F0500A4720500AC
:1089D400C46F0500BC720500D872050000B585B0EF
:1089E40001900091009B1B6804220A4918462DF04F
:1089F40067FC0346002B07D127F0ECFF0390039A92
:108A04000549032001F0AAFC0023184605B05DF8CF
:108A140004FB00BFEC720500F472050000B585B0DC
:108A240003900291029B1B6808220C4918462DF002
:108A340047FC0346002B0BD10949032001F08EFCAF
:108A440000230093002300220021064810F060FF59
:108A54000023184605B05DF804FB00BF047305004D
:108A64001073050000000105014B1846704700BF54
:108A7400982C002000B585B0019001982DF0EEFBF4
:108A840003469BB20133ADF80E30BDF80E301846E4
:108A940027F0D6FE03460293029BBDF80E20002168
:108AA40018462DF043FD029B019A084918462CF004
:108AB4002BFA02AB1946012000F026F8029B184657
:108AC40027F050FF00BF05B05DF804FB7874050083
:108AD40000B583B0019000910348FFF7CBFF00BFBE
:108AE40003B05DF804FB00BF2C73050000B583B030
:108AF400019000910348FFF7BDFF00BF03B05DF88C
:108B040004FB00BF3473050000B587B003900291E5
:108B1400029B1B6818462DF0A1FB03469BB203334E
:108B2400ADF81630BDF81630184627F089FE0490CB
:108B3400BDF816301A46002104982DF0F7FCBDF854
:108B44001610029B1B68084A04982CF0C5F9049976
:108B5400BDF8162000230093002304480FF00EFFF5
:108B640000BF07B05DF804FB7C740500030000043B
:108B740000B585B003900291029B1B6802221C4938
:108B840018462DF09DFB0346002B0BD10AF028FF5D
:108B9400002300930023002200214FF080600FF097
:108BA400EDFE20E0029B1B680322124918462DF0BB
:108BB40087FB0346002B0AD10023009300230022E5
:108BC40000210D480FF0DAFE0AF027FF0BE0029BAC
:108BD4001B680522094918462DF072FB0346002B39
:108BE40001D10AF027FF00BF05B05DF804FB00BF08
:108BF4008474050088740500010000048C74050069
:108C040000B585B001900091009B1B6818462AF0BE
:108C14006CFC03460393039801F02EFB00BF05B0E0
:108C24005DF804FB82B00190009100BF02B0704770
:108C340000B583B001900091009B1B680522684930
:108C440018462DF03DFB0346002B03D16548FFF782
:108C540011FFC0E0009B1B680422634918462DF0F5
:108C64002FFB0346002B03D16048FFF703FFB2E05C
:108C7400009B1B6802225E4918462DF021FB034627
:108C8400002B02D10AF0E0FEA5E0009B1B68032242
:108C9400584918462DF014FB0346002B02D10AF064
:108CA400DCFE98E0009B1B680922534918462DF00E
:108CB40007FB0346002B19D1009B04331B681A7869
:108CC4004E4B1B78D31A002B03D14D48FFF7D2FE2D
:108CD40081E0009B04331B681A784A4B1B78D31A33
:108CE400002B78D14848FFF7C5FE74E0009B1B6851
:108CF4000622464918462DF0E3FA0346002B2AD1F2
:108D0400009B04331B680422414918462DF0D8FA0D
:108D14000346002B03D13F48FFF7ACFE5BE0009B0A
:108D240004331B6804223C4918462DF0C9FA034653
:108D3400002B03D13948FFF79DFE4CE0009B043320
:108D44001B681A78364B1B78D31A002B43D135484D
:108D5400FFF790FE3FE0009B1B6803223249184650
:108D64002DF0AEFA0346002B1DD1009B04331B6883
:108D740003222E4918462DF0A3FA0346002B03D1F3
:108D840001200AF0F5FD26E0009B04331B68032252
:108D9400274918462DF094FA0346002B1BD10220D4
:108DA4000AF0E6FD17E0009B1B68042221491846DF
:108DB4002DF086FA0346002B0DD1009B04331B686B
:108DC40003221D4918462DF07BFA0346002B02D1DD
:108DD4001A48FFF74FFE00BF03B05DF804FB00BF65
:108DE400947405009C740500A8740500B074050013
:108DF4008474050088740500BC740500C8740500FB
:108E0400CC740500E8740500EC74050008750500D1
:108E140010750500187505003075050038750500D6
:108E240060750500647505008C7505009075050076
:108E34009475050098750500A0750500A4750500D6
:108E440010B584B001900091009B1B68002B09D0E1
:108E5400009B1B68029300238DF80F3000238DF8CC
:108E64000E3037E0012348E09DF80F2024491346D3
:108E74005B001344DB000B441C689DF80F20204961
:108E840013465B001344DB000B441B6818462DF0AB
:108E9400E5F903461A46214602982DF011FA0346D5
:108EA400002B12D19DF80F20154913465B00134483
:108EB400DB000B440C331B68009A04321146019802
:108EC400984701238DF80E300FE09DF80F300133E1
:108ED4008DF80F309DF80F20094913465B001344A9
:108EE400DB000B441B68002BBED19DF80E30002B19
:108EF40002D10348FEF704FC0123184604B010BD58
:108F0400982C0020014B1846704700BF582D0020B4
:108F140010B584B001900091009B1B68002B09D010
:108F2400009B1B68029300238DF80F3000238DF8FB
:108F34000E3037E0012348E09DF80F202449134602
:108F44005B001344DB000B441C689DF80F20204990
:108F540013465B001344DB000B441B6818462DF0DA
:108F64007DF903461A46214602982DF0A9F90346D5
:108F7400002B12D19DF80F20154913465B001344B2
:108F8400DB000B440C331B68009A04321146019831
:108F9400984701238DF80E300FE09DF80F30013310
:108FA4008DF80F309DF80F20094913465B001344D8
:108FB400DB000B441B68002BBED19DF80E30002B48
:108FC40002D10348FEF79CFB0123184604B010BDF0
:108FD400582D002000B585B0039002910023009322
:108FE4000023002200214FF0807010F041FF002385
:108FF400184605B05DF804FB00B585B003900291F6
:1090040000230093002300220021044810F030FFC5
:109014000023184605B05DF804FB00BF00000F01F3
:1090240000B585B003900291002300930023002231
:109034000021044810F01CFF0023184605B05DF819
:1090440004FB00BF01000F0100B585B0039002913D
:1090540000230093002300220021044810F008FF9D
:109064000023184605B05DF804FB00BF02000F01A1
:1090740000B585B0039002910023009300230022E1
:109084000021044810F0F4FE0023184605B05DF8F2
:1090940004FB00BF05000F0182B001900091002382
:1090A400184602B07047000000B585B003900291E5
:1090B40000230093002300220021044810F0D8FE6E
:1090C4000023184605B05DF804FB00BF03000F0140
:1090D40000B585B003900291002300930023002281
:1090E4000021044810F0C4FE0023184605B05DF8C2
:1090F40004FB00BF04000F0100B583B00190009190
:10910400009B1B6804225C4918462DF0D9F80346DD
:10911400002B09D1002003F035FE03F025FC57494C
:10912400032001F01BF9A1E0009B1B6804225449B1
:1091340018462DF0C5F80346002B09D151490320E8
:1091440001F00CF9012003F01DFE03F00DFC8DE08D
:10915400009B1B684C4918462DF05AF90346002B16
:1091640009D1022003F00EFE03F0FEFB4749032061
:1091740001F0F4F87AE0009B1B6806224449184683
:109184002DF09EF80346002B09D1032003F0FAFDCD
:1091940003F0EAFB3F49032001F0E0F866E0009B9E
:1091A4001B6802223C4918462DF08AF80346002B1E
:1091B40009D13A49032001F0D1F8042003F0E2FD7B
:1091C40003F0D2FB52E0009B1B680422344918468A
:1091D4002DF076F80346002B09D13249032001F023
:1091E400BDF8052003F0CEFD03F0BEFB3EE0009B7E
:1091F4001B6806222C4918462DF062F80346002B02
:1092040009D1062003F0BEFD03F0AEFB274903207D
:1092140001F0A4F82AE0009B1B68022224491846A6
:109224002DF04EF80346002B09D1072003F0AAFDC8
:1092340003F09AFB1F49032001F090F816E0009B0D
:109244001B6804221C4918462DF03AF80346002BEB
:1092540009D1082003F096FD03F086FB174903208B
:1092640001F07CF802E01648FEF74AFA002318469B
:1092740003B05DF804FB00BFE0760500E876050066
:10928400FC76050004770500187705001C770500B7
:10929400B475050034770500CC75050048770500E2
:1092A400DC75050058770500F47505006C7705003A
:1092B4003C760500807705004C7605009077050024
:1092C400582D002000B585B003900291002300932F
:1092D400002300220021044810F0CAFD0023184690
:1092E40005B05DF804FB00BF08000001014B1846FF
:1092F400704700BF602E002010B584B0019000912B
:10930400009B1B68002B09D0009B1B680293002361
:109314008DF80F3000238DF80E3037E0012348E03C
:109324009DF80F20244913465B001344DB000B44D3
:109334001C689DF80F20204913465B001344DB0092
:109344000B441B6818462CF089FF03461A46214635
:1093540002982CF0B5FF0346002B12D19DF80F2084
:10936400154913465B001344DB000B440C331B68A4
:10937400009A043211460198984701238DF80E3063
:109384000FE09DF80F3001338DF80F309DF80F205A
:10939400094913465B001344DB000B441B68002B94
:1093A400BED19DF80E30002B02D10348FEF7A8F978
:1093B4000123184604B010BD602E002000B595B0FE
:1093C400039002914FF480531393029B1B68042271
:1093D400A14918462CF074FF0346002B12D105ABAB
:1093E4002022002118462DF0A1F805AB20221946B1
:1093F400139808F05FFF05AB139A9849032000F017
:10940400ADFF24E1029B1B680522954918462CF008
:1094140057FF0346002B08D1139808F095FF139AC1
:109424009049032000F09AFF11E1029B1B6805227A
:109434008D4918462CF044FF0346002B12D1029BA1
:109444005B680E930E982CF009FF03469BB21A46F4
:109454000E99139808F0C4FE0E9A8449032000F074
:109464007DFFF4E0029B1B680722814918462CF01B
:1094740027FF0346002B04D108F0E6FF03F08CFA23
:10948400E5E0029B1B6806227A4918462CF018FF77
:109494000346002B1CD1029B5B68109310982CF0A0
:1094A400DDFE03460F930F9B0B2B0AD1109803F09C
:1094B40089FC03F059FA109A6F49032000F04EFF1B
:1094C400C5E0109B0F9A6D49012000F047FFBEE0F4
:1094D400029B1B6808226A4918462CF0F1FE0346D9
:1094E400002B6ED1029B04331B6806226549184683
:1094F4002CF0E6FE0346002B19D1029B08331B68AF
:109504000A22002118462AF000F80346ADF8463036
:10951400BDF84630184603F08FFC03F025FABDF879
:1095240046301A465849032000F018FF8FE0029B8A
:1095340004331B680722554918462CF0C1FE034624
:10954400002B19D1029B08331B680A2200211846FC
:1095540029F0DBFF0346ADF84830BDF84830184623
:1095640003F092FC03F000FABDF848301A4648496B
:10957400032000F0F3FE6AE0029B04331B6804221C
:10958400444918462CF09CFE0346002B5FD1029BF5
:1095940008331B680A220021184629F0B6FF034647
:1095A400ADF84A30BDF84A30184603F059FC03F0D0
:1095B400DBF9BDF84A301A463749032000F0CEFEE5
:1095C40045E0029B1B680722344918462CF078FEBC
:1095D4000346002B08D1002300930023002200211E
:1095E4002F4814F093FF32E0029B1B6805222D499B
:1095F40018462CF065FE0346002B02D108F026FD28
:1096040025E0029B1B680622274918462CF058FEC9
:109614000346002B02D108F03BFD18E000230D9314
:109624000DAB0421184608F0B3FC9DF834301946FC
:109634009DF8353018469DF836309DF83720019254
:10964400009303460A461949032000F087FE0023CD
:10965400184615B05DF804FB4C7A0500547A0500F1
:10966400747A05007C7A05009C7A0500A47A0500CA
:10967400C87A0500D07A0500D87A0500F87A050082
:10968400387B0500447B05004C7B05007C7B050092
:10969400847B05001C790500B47B0500E07B050094
:1096A40000000203E87B0500F07B0500F87B050061
:1096B400F0B5A5B00F900E910E9B1B680522B4491E
:1096C40018462CF0FDFD0346002B06D1B1490320BA
:1096D40000F044FE04F01CFD7EE10E9B1B68062294
:1096E400AD4918462CF0ECFD0346002B40F0C78032
:1096F40000231E930E9B04331B680A220021184684
:1097040029F003FF03461E93A449032000F026FE1C
:1097140000232393ADE00EF083FA0DF04DF90EF023
:10972400B3FE662028F068FC08F082F90146239A0B
:109734001E9BD31A0B44119311AB9A1D11AB043326
:10974400114618460EF056FF0023ADF876300DF1A1
:10975400760411AB03F10D0211AB03F10B0111AB54
:1097640003F1090023460DF0F5FE0DF015FF0EF090
:1097740039FA03469BB2ADF8593000231C930023F9
:109784001B931BAA1CAB114618460EF03DFA1B9BFB
:109794001BB2ADF84B300123ADF864300223ADF8B1
:1097A40066300323ADF868300EF03FFA0DF056F939
:1097B4000EF071FE04F04CFF119CBDF948509DF869
:1097C4004A60BDF94B301FB2BDF859309BB20493C7
:1097D40002AB19AA92E803001860043319806A46A0
:1097E4000DF14D03186810609B8893803B46324608
:1097F4002946204604F078FF05F01AF8119B0B93D4
:10980400BDF948209DF84A10BDF94B0000B2BDF8DF
:109814005940A4B2BDF94D502DB2BDF94F6036B2D6
:10982400BDF951703FB2BDF953C00FFA8CFCCDF8AD
:1098340030C0BDF955C00FFA8CFCCDF834C0BDF969
:1098440057C00FFA8CFC634609930D9B08930C9B3D
:10985400079306970596049503940290019100924C
:109864000B9B239A4E49032000F078FD239B013380
:109874002393239B1E9A9A423FF64DAFACE00E9B76
:109884001B680422474918462CF01AFD0346002B96
:109894005FD100231F930E9B04331B680A2200210F
:1098A400184629F032FE03461F9311AB20220021F3
:1098B40018462CF03BFE3C49032000F04FFD0023EA
:1098C400229341E0229BDAB211AB1146184605F00F
:1098D400B5F8119B0B93BDF948209DF84A10BDF9CA
:1098E4004B0000B2BDF85940A4B2BDF94D502DB2A1
:1098F400BDF94F6036B2BDF951703FB2BDF953C0E6
:109904000FFA8CFCCDF830C0BDF955C00FFA8CFCB1
:10991400CDF834C0BDF957C00FFA8CFC63460993E7
:109924000D9B08930C9B0793069705960495039447
:109934000290019100920B9B229A1949032000F096
:109944000DFD229B01332293229B1F9A9A42B9D880
:1099540042E00E9B1B680422144918462CF0B0FC0C
:109964000346002B26D1002320930E9B04331B684F
:109974000A220021184629F0C8FD034620930C4909
:10998400032000F0EBFC209805F0C2F824E000BFAF
:10999400747A05001C7C0500387C0500407C0500B9
:1099A400607C05004C7A0500EC7C05000C7D05000C
:1099B400147D05000E9B1B680322094918462CF0F0
:1099C4007FFC0346002B07D104F0A2FF2190219ACB
:1099D4000449032000F0C2FC0023184625B0F0BD62
:1099E400347D0500387D050000B595B005900491DF
:1099F400049B1B680522684918462CF061FC034649
:109A0400002B06D16549032000F0A8FC03F08EFE6C
:109A1400BCE0049B1B680622614918462CF050FCEC
:109A24000346002B42D100230E93049B04331B688E
:109A34000A220021184629F068FD03460E9359496D
:109A4400032000F08BFC002313932AE007F0F0FFBF
:109A54000146139A0E9BD31A0B440A93524B0B9351
:109A6400524B0C930023ADF8343004F019F90A98E2
:109A74000B990C9ABDF8343004F01CF904F032F957
:109A84000A990B9B0C9ABDF8340002900192009342
:109A94000B46139A4649032000F060FC139B0133E4
:109AA4001393139B0E9A9A42D0D86FE0049B1B68C1
:109AB4000422404918462CF003FC0346002B35D100
:109AC40000230F93049B04331B680A2200211846C9
:109AD40029F01BFD03460F9306AB10220021184604
:109AE4002CF024FD3449032000F038FC00231293A9
:109AF40017E0129BDAB206AB1146184604F00AFAD4
:109B04000699079B089ABDF82400029001920093DD
:109B14000B46129A2649032000F020FC129B0133C5
:109B24001293129B0F9A9A42E3D82FE0049B1B686E
:109B34000422224918462CF0C3FB0346002B13D100
:109B440000231093049B04331B680A220021184647
:109B540029F0DBFC034610931949032000F0FEFBB7
:109B6400109804F04BFA11E0049B1B68032215497A
:109B740018462CF0A5FB0346002B07D104F02CF962
:109B84001190119A1049032000F0E8FB00231846B5
:109B940015B05DF804FB00BF747A0500587D05001C
:109BA400387C0500707D05003C3B390052DFC10064
:109BB400907D05004C7A0500CC7D05000C7D0500E8
:109BC400E87D0500347D0500047E050082B0019027
:109BD40000910023184602B0704708B5FDF7A8FCB1
:109BE40009F016FC00BF08BD00B583B00023019343
:109BF40036E026F01DFD0090009BB3F1FF3F34D00A
:109C0400009B0A2B02D0009B0D2B0DD13649052059
:109C140000F0A4FB354B1B685A1C34490A60009AB7
:109C2400D1B2334AD15418E0009B7F2B0CD12F4B77
:109C34001B68002B11D02F4800F070FC2B4B1B68C5
:109C4400013B2A4A136008E0284B1B685A1C274929
:109C54000A60009AD1B2264AD154019B0133019380
:109C6400019BB3F5806FC4D300E000BF1F4B1B689A
:109C7400002B34D01D4B1B68013B1D4AD35C0D2BBC
:109C840006D01A4B1B68013B194AD35C0A2B16D128
:109C9400164B1B68013B164A0021D154134B1B6819
:109CA400012B0AD1114B00221A604FF4806200216B
:109CB4000F482CF03BFC002312E0012310E00B4B77
:109CC4001B68B3F5806F08D3084B00221A604FF469
:109CD4008062002106482CF029FC002300E00023C8
:109CE400184603B05DF804FB247E050004920020AE
:109CF400048E0020287E050000B587B00190002363
:109D04008DF817302023ADF80C3000238DF80F3078
:109D1400019B00221A70FFF767FF0346002B00F037
:109D240093809DF81730002B06D103AB19464948A0
:109D34002CF03EFB049005E003AB194600202CF008
:109D440037FB0490049B002B72D004982CF086FA05
:109D54000346402B62D8049B002B5FD09DF817303C
:109D6400002B07D1019B0133049A3B4918462BF081
:109D7400CBF853E09DF81730012B0DD1019B4133F3
:109D8400049A354918462BF0BFF8019B1B78013320
:109D9400DAB2019B1A7041E09DF81730022B0DD105
:109DA400019B8133049A2C4918462BF0ADF8019B92
:109DB4001B780133DAB2019B1A702FE09DF817303B
:109DC400032B0DD1019BC133049A234918462BF070
:109DD4009BF8019B1B780133DAB2019B1A701DE0DA
:109DE4009DF81730042B0ED1019B03F20113049A42
:109DF400194918462BF088F8019B1B780133DAB215
:109E0400019B1A700AE0019B1B780133DAB2019BB3
:109E14001A70049A1149032000F0A0FA9DF8173033
:109E240001338DF81730049B002B7FF47AAF00E0E8
:109E340000BF0B4B00221A604FF4806200210548DA
:109E44002CF074FB012300E00023184607B05DF8F2
:109E540004FB00BF048E0020347E0500387E05001C
:109E64000492002000B5D7B005AB40F241120021A6
:109E740018462CF05BFB05AB1846FFF73DFF034685
:109E8400002B23D056ABA3F5AA7305AA41321A605E
:109E940056ABA3F5AA7305AA81325A6056ABA3F553
:109EA400AA7305AAC1329A6056ABA3F5AA7305AA90
:109EB40002F20112DA6056ABA3F5A2731B781946BD
:109EC40001AA05AB01331846FDF7CAFB00BF57B022
:109ED4005DF804FB00B587B0674B1B68002B3ED0D0
:109EE400002303930DF10B03184609F0B5FA03465A
:109EF4000393039B012B11D1604B1A68604B1B68C1
:109F0400591C5F48016013449DF80B201A705A4B8A
:109F14001A685B4B1B689A42E2D800E000BF584BBA
:109F24001A68554B1B689A4240F0A180534B1A683B
:109F3400534B1B68591C5248016013441A221A706F
:109F44004E4B1B6819464E4B1A680023009300239E
:109F54004C480EF013FD484B00221A6087E00023A2
:109F6400059345E0002304930DF10B03184609F013
:109F740073FA03460493049B012B3ED19DF80B30E6
:109F84000A2B03D09DF80B300D2B0DD13E49052033
:109F940000F0E4F93D4B1B685A1C3C490A609DF8EB
:109FA4000B103B4AD15420E09DF80B30082B0CD108
:109FB400364B1B68002B18D0364800F0AFFA334BF1
:109FC4001B68013B314A13600FE09DF80B301A46C1
:109FD4003149052000F0C2F92C4B1B685A1C2B494F
:109FE4000A609DF80B102A4AD154059B013305934E
:109FF400059BB3F5806FB5D300E000BF234B1B680E
:10A00400002B34D0214B1B68013B214AD35C0D2B20
:10A0140006D01E4B1B68013B1D4AD35C0A2B16D18C
:10A024001A4B1B68013B1A4A0021D154174B1B6879
:10A03400012B0AD1154B00221A604FF480620021D3
:10A0440013482CF073FA002312E0012310E00F4BA5
:10A054001B68B3F5806F08D30C4B00221A604FF4D1
:10A06400806200210A482CF061FA002300E00023FA
:10A07400184607B05DF804FB0C96002010960020EB
:10A084001496002003000004247E05000896002096
:10A0940008920020287E0500447E050000B587B0A4
:10A0A400019000238DF817302023ADF80C300023E5
:10A0B4008DF80F30019B00221A70FFF70BFF034647
:10A0C400002B00F093809DF81730002B06D103ABD2
:10A0D400194649482CF06CF9049005E003AB194685
:10A0E40000202CF065F90490049B002B72D0049896
:10A0F4002CF0B4F80346402B62D8049B002B5FD0AD
:10A104009DF81730002B07D1019B0133049A3B497A
:10A1140018462AF0F9FE53E09DF81730012B0DD1B3
:10A12400019B4133049A354918462AF0EDFE019B00
:10A134001B780133DAB2019B1A7041E09DF81730A5
:10A14400022B0DD1019B8133049A2C4918462AF025
:10A15400DBFE019B1B780133DAB2019B1A702FE0FE
:10A164009DF81730032B0DD1019BC133049A234969
:10A1740018462AF0C9FE019B1B780133DAB2019B11
:10A184001A701DE09DF81730042B0ED1019B03F2C9
:10A194000113049A194918462AF0B6FE019B1B784C
:10A1A4000133DAB2019B1A700AE0019B1B78013378
:10A1B400DAB2019B1A70049A1149032000F0CEF818
:10A1C4009DF8173001338DF81730049B002B7FF472
:10A1D4007AAF00E000BF0B4B00221A604FF480629C
:10A1E400002105482CF0A2F9012300E000231846C1
:10A1F40007B05DF804FB00BF08920020347E050020
:10A20400387E05000896002000B5D7B005AB40F2B3
:10A214004112002118462CF089F905AB1846FFF7C6
:10A224003DFF0346002B23D056ABA3F5AA7305AA22
:10A2340041321A6056ABA3F5AA7305AA81325A605B
:10A2440056ABA3F5AA7305AAC1329A6056ABA3F51F
:10A25400AA7305AA02F20112DA6056ABA3F5A2733F
:10A264001B78194601AA05AB01331846FDF7F8F926
:10A2740000BF57B05DF804FB00B583B001900D4AF0
:10A28400019B13600B4B1B680133184626F0D8FA68
:10A294000346094A1360094B00221A60054B1B68E8
:10A2A4001A460749032000F059F800BF03B05DF8CF
:10A2B40004FB00BF0C96002010960020149600208A
:10A2C400487E050000B583B0012027F012F903464B
:10A2D4000E4A13600D4B1B68002B01D1012310E0C3
:10A2E4004FF40041002025F08BF80190019B00936E
:10A2F400009B002B02D000981FF0B8FD25F01EF83B
:10A304000023184603B05DF804FB00BF189A002030
:10A3140008B5074B1B686621184627F0F1FA034677
:10A32400012B02D04FF0FF3300E00023184608BD94
:10A33400189A002008B5084B186800230022002151
:10A3440027F0F0F80346012B02D04FF0FF3300E072
:10A354000023184608BD00BF189A00200EB400B5AB
:10A3640086B00190002304930023ADF80E30FFF76C
:10A37400CFFF019B002B02D0079B002B02D1FFF7DC
:10A38400D9FFACE04FF48062002157482CF0CEF89E
:10A39400019B012B05D1554A554953482AF0B4FD78
:10A3A40018E0019B022B05D1524A53494E482AF02A
:10A3B400ABFD0FE0019B042B05D1504A50494A489C
:10A3C4002AF0A2FD06E0019B032B03D14D49464828
:10A3D4002AF09AFD44482BF041FF0346ADF80E30B5
:10A3E40008AB0293BDF80E303F4A9818BDF80E3002
:10A3F400C3F580631946029B079A2AF0B2FD3A4BD3
:10A404002E2283F8FC23384B2E2283F8FD23364B6F
:10A414002E2283F8FE23344B002283F8FF23324894
:10A424002BF01CFF0346ADF80E30019B042B20D00B
:10A43400019B042B27DC019B022B03DC019B002BDB
:10A4440004DC20E0019B032B0AD01CE0BDF80E3095
:10A45400254A13442C4A2D4918462AF055FD13E089
:10A46400BDF80E30204A1344294918462AF04CFD01
:10A474000AE0BDF80E301C4A1344234A204918460A
:10A484002AF042FD00E000BF17482BF0E7FE034628
:10A49400ADF80E301F4A204BD31ADB081B0443F0DF
:10A4A4000503114A1649184625F07AFA25F0C6FA2A
:10A4B4000346002BFAD10023059309E00A4A059BC1
:10A4C40013441B78184608F0D5FF059B0133059308
:10A4D400BDF80E30059A9A42F0DBFFF72BFF06B069
:10A4E4005DF804EB03B0704718960020587E050011
:10A4F400647E05006C7E0500787E0500807E050084
:10A504008C7E0500907E0500947E05009C7E0500EF
:10A51400A47E0500BC6705005C6705000FB400B5A8
:10A5240085B000238DF80B30FFF7F2FE069B002B5D
:10A5340002D1FFF7FFFE41E04FF480620021224880
:10A544002BF0F4FF20482BF089FE03468DF80B30E6
:10A5540007AB01939DF80B301B4A1344019A0699EB
:10A5640018462AF0EBFC18482BF078FE03468DF8C9
:10A574000B30164A164BD31ADB081B0443F00503B1
:10A58400114A1449184625F00BFA25F057FA0346E8
:10A59400002BFAD10023039309E00B4A039B1344D5
:10A5A4001B78184608F066FF039B013303939DF85C
:10A5B4000B30039A9A42F0DBFFF7BCFE05B05DF85E
:10A5C40004EB04B0704700BF18960020BC67050078
:10A5D4005C6705008C7E050000B583B001900B46D6
:10A5E400ADF80230074A019B1360064B1B68BDF8A7
:10A5F40002201146184600F043FA00BF03B05DF88C
:10A6040004FB00BF1C9A002000B583B003468DF8FC
:10A6140007300B4B1B78012B05D19DF807301846EA
:10A6240000F092F908E0064B1B78022B04D19DF848
:10A634000730184600F026F900BF03B05DF804FBAC
:10A64400D82E002000B583B003468DF807300B4B9D
:10A654001B78012B05D19DF80730184600F088F9C6
:10A6640008E0064B1B78022B04D19DF807301846EE
:10A6740000F016F900BF03B05DF804FBD82E0020EB
:10A6840000B583B00190094B1B78012B03D10198CD
:10A6940000F082F906E0054B1B78022B02D10198E9
:10A6A40000F00CF900BF03B05DF804FBD82E0020C5
:10A6B40000B583B00346ADF806300B4B1B78012B75
:10A6C40005D1BDF80630184600F07CF908E0064BC9
:10A6D4001B78022B04D1BDF80630184600F0FAF8B6
:10A6E40000BF03B05DF804FBD82E002000B583B092
:10A6F40003468DF807300B4B1B78012B05D19DF8D1
:10A704000730184600F072F908E0064B1B78022B5C
:10A7140004D19DF80730184600F0EAF800BF03B0F2
:10A724005DF804FBD82E002000B583B00190094BDE
:10A734001B78012B03D1019800F06CF906E0054B5E
:10A744001B78022B02D1019800F0E0F800BF03B09F
:10A754005DF804FBD82E002000B583B00346ADF8A5
:10A7640006300B4B1B78012B05D1BDF8063018467B
:10A7740000F062F908E0064B1B78022B04D1BDF807
:10A784000630184600F0CCF800BF03B05DF804FBB7
:10A79400D82E002000B583B000230193054B1B780D
:10A7A400012B02D100F06EFA0190019B184603B010
:10A7B4005DF804FBD82E002000B583B0002301937C
:10A7C400054B1B78012B02D100F046FD0190019B43
:10A7D400184603B05DF804FBD82E002000B583B002
:10A7E40000230193054B1B78012B02D100F050FF8D
:10A7F4000190019B184603B05DF804FBD82E00209D
:10A8040000B583B000230193054B1B78012B02D1C3
:10A8140000F044FF0190019B184603B05DF804FB6F
:10A82400D82E002000B583B000238DF80730074BE5
:10A834001B78012B04D101F09DF803468DF80730F5
:10A844009DF80730184603B05DF804FBD82E0020AD
:10A85400014B1B68184670471C9A002008B5084B2A
:10A864001B78012B03D100F07BF9034605E0044B70
:10A874001B78022B01D10023FFE7184608BD00BF57
:10A88400D82E002082B003468DF80730034A9DF885
:10A894000730137000BF02B0704700BF209A002039
:10A8A40082B003468DF80730034A9DF807301370D1
:10A8B40000BF02B0704700BF219A002082B001900F
:10A8C400019BDAB2024B1A7000BF02B0704700BF9E
:10A8D400229A002082B00346ADF80630034ABDF840
:10A8E4000630138000BF02B0704700BF249A0020D6
:10A8F40082B003468DF807309DF807309AB2024BB8
:10A904001A8000BF02B07047249A002082B00190E0
:10A91400024A019B136000BF02B07047289A0020CE
:10A9240082B00346ADF80630034ABDF80630138002
:10A9340000BF02B0704700BF2C9A0020014B1B7867
:10A94400184670475A9A002082B003468DF80730A3
:10A95400034A9DF80730137000BF02B0704700BF70
:10A964005A9A0020014B1B78184670475B9A0020C6
:10A9740082B003468DF80730034A9DF80730137000
:10A9840000BF02B0704700BF5B9A0020014B1B78E8
:10A99400184670475C9A002084B00190019B039391
:10A9A400039B002BB8BF5B42DAB2024B1A7000BFA4
:10A9B40004B070475C9A0020014B1B88184670470E
:10A9C4005E9A002082B00346ADF80630034ABDF813
:10A9D4000630138000BF02B0704700BF5E9A0020AB
:10A9E400014B1B7818467047609A002082B00346DA
:10A9F4008DF80730034A9DF80730137000BF02B08A
:10AA0400704700BF609A0020014B1B6818467047CE
:10AA1400649A002082B00190024A019B136000BF37
:10AA240002B07047649A0020024B1B689BB2184620
:10AA3400704700BF689A002082B00346ADF8063024
:10AA4400BDF80630024A136000BF02B0704700BF71
:10AA5400689A002008B5074B00221A80064B1B6831
:10AA6400064A1288002118462BF060FD00F07EF89B
:10AA740000BF08BD369A0020309A0020349A002086
:10AA840000B583B001900B46ADF80230064A019B35
:10AA94001360064ABDF802301380FFF7DBFF00BFE6
:10AAA40003B05DF804FB00BF309A0020349A002004
:10AAB40000B589B003460092ADF806300B46ADF8F8
:10AAC4000430BDF806300593059B5BBA0493049BE0
:10AAD4009BB2ADF80E30204B1B68204A12881344F9
:10AAE400BDF80E201A801D4B1B8802339AB21B4BF3
:10AAF4001A80BDF804300793079B5BBA0693069B44
:10AB04009BB2ADF80C30144B1B68144A12881344E2
:10AB1400BDF80C201A80114B1B8802339AB20F4BDC
:10AB24001A80BDF80430002B12D00B4B1B680B4A63
:10AB340012881344BDF80420009918462BF0C4FC75
:10AB4400064B1A88BDF8043013449AB2034B1A809A
:10AB540000BF09B05DF804FB309A0020369A00204B
:10AB6400014B1B8818467047369A002008B5054BE0
:10AB740000221A802022002103482BF0D7FC00BFBA
:10AB840008BD00BF589A0020389A002000B585B04F
:10AB9400034600918DF807300023ADF80E30009B7A
:10ABA400002B5AD09DF80730013B072B32D801A265
:10ABB40052F823F0D9AB0200E1AB0200E9AB02008A
:10ABC400F1AB0200F9AB020001AC020009AC0200D7
:10ABD40011AC02000423ADF80E301CE00123ADF8E3
:10ABE4000E3018E00223ADF80E3014E00223ADF865
:10ABF4000E3010E00623ADF80E300CE00223ADF861
:10AC04000E3008E00123ADF80E3004E00623ADF861
:10AC14000E3000E000BF134B1B881A46124B13443E
:10AC24009DF807201A700F4B1B8801339AB20D4B05
:10AC34001A800C4B1B881A460B4B1344BDF80E208C
:10AC4400009918462BF040FC064B1A88BDF80E30CC
:10AC540013449AB2034B1A8000E000BF05B05DF8BC
:10AC640004FB00BF589A0020389A0020014B1B882F
:10AC740018467047589A0020014B1846704700BF89
:10AC8400389A002000B5BFB0FFF7E4FE06F0B0FF2D
:10AC940003462893289B1BBA249324AB1A46042109
:10ACA4000020FFF705FF00238DF88F300DF18F038F
:10ACB4001A4601214FF48170FFF7FAFE01232A930B
:10ACC4002A9B5BBA2993299B9BB2ADF88C3023ABAA
:10ACD4001A46022140F20310FFF7EAFE02F0A6F83A
:10ACE40003462C932C9B5BBA2B932B9B9BB2ADF806
:10ACF4008A300DF18A031A4602214FF48270FFF75D
:10AD0400D7FE02F0A7F803462E932E9B5BBA2D9331
:10AD14002D9B9BB2ADF8883022AB1A46022140F23B
:10AD24000510FFF7C5FE02F0A9F803463093309BE7
:10AD34005BBA2F932F9B9BB2ADF886300DF186033F
:10AD44001A4602214FF48370FFF7B2FE02F0AAF80C
:10AD540003468DF885300DF185031A46012140F232
:10AD64000710FFF7A5FE02F0BFF803468DF8843004
:10AD740002F0D0F803468DF8833002F0E1F8034680
:10AD84008DF8823002F0F2F803468DF8813002F03B
:10AD940003F903468DF8803002F014F903468DF868
:10ADA4007F3002F025F903468DF87E3021AB1A4638
:10ADB40001214FF48870FFF77BFE0DF183031A46DF
:10ADC400012140F21110FFF773FE0DF182031A46C0
:10ADD40001214FF48970FFF76BFE0DF181031A46D0
:10ADE400012140F21310FFF763FE20AB1A46012144
:10ADF4004FF48A70FFF75CFE0DF17F031A460121C0
:10AE040040F21510FFF754FE0DF17E031A4601219E
:10AE14004FF48B70FFF74CFE02F000F903468DF8F7
:10AE24007D3002F01DF903468DF87C3002F03AF9CA
:10AE340003468DF87B3002F057F903468DF87A30DB
:10AE440002F074F903468DF8793002F091F9034663
:10AE54008DF8783002F0AEF903468DF877300DF1B5
:10AE64007D031A4601214FF49070FFF721FE1FABBA
:10AE74001A46012140F22110FFF71AFE0DF17B035F
:10AE84001A4601214FF49170FFF712FE0DF17A0377
:10AE94001A46012140F22310FFF70AFE0DF179034F
:10AEA4001A4601214FF49270FFF702FE1EAB1A46B8
:10AEB400012140F22510FFF7FBFD0DF177031A463F
:10AEC40001214FF49370FFF7F3FD02F089F9034673
:10AED4008DF876300DF176031A4601214FF49870FF
:10AEE400FFF7E6FD02F092F903468DF8753002F0A3
:10AEF400A3F903463293329B5BBA3193319B9BB2E5
:10AF0400ADF8723002F0AEF903463493349B5BBA69
:10AF14003393339B9BB2ADF870300DF175031A4631
:10AF2400012140F23110FFF7C3FD0DF172031A46FF
:10AF340002214FF49970FFF7BBFD1CAB1A460221A6
:10AF440040F23310FFF7B4FD02F0A2F903468DF886
:10AF54006F3002F0B3F903463693369B5BBA3593F0
:10AF6400359B9BB2ADF86C3002F0BCF903463893C4
:10AF7400389B5BBA3793379B9BB2ADF86A300DF1BF
:10AF84006F031A4601214FF49A70FFF791FD1BAB32
:10AF94001A46022140F23510FFF78AFD0DF16A03CB
:10AFA4001A4602214FF49B70FFF782FD02F0AEF9BE
:10AFB40003468DF8693002F0BFF903468DF8683016
:10AFC4000DF169031A46012140F23710FFF770FDB5
:10AFD4001AAB1A4601214FF49C70FFF769FD02F089
:10AFE400C1F903468DF8673002F0D2F903468DF8B3
:10AFF400663002F0E3F903468DF865300DF167031E
:10B004001A46012140F23910FFF752FD0DF1660393
:10B014001A4601214FF49D70FFF74AFD0DF16503B7
:10B024001A46012140F23B10FFF742FD02F0DCF921
:10B0340003468DF8643002F0EDF903463A933A9BE7
:10B044005BBA3993399B9BB2ADF8623002F0F8F9E0
:10B0540003463C933C9B5BBA3B933B9B9BB2ADF852
:10B06400603019AB1A4601214FF49E70FFF720FDA2
:10B074000DF162031A46022140F23D10FFF718FD5C
:10B0840018AB1A4602214FF49F70FFF711FD02F02E
:10B09400EDF903468DF85F300DF15F031A46012187
:10B0A4004FF4A070FFF704FD02F0F6F903468DF8A3
:10B0B400F6300DF15F031A4601214FF4A060FFF74B
:10B0C400F7FC00238DF8F73014E09DF8F7301846AC
:10B0D40002F0F8F903468DF85D300DF15D031A4670
:10B0E400012140F20150FFF7E3FC9DF8F7300133F2
:10B0F4008DF8F7309DF8F7209DF8F6309A42E4D3A6
:10B10400FFF71CFC03468DF85E300DF15E031A4612
:10B11400012140F20250FFF7CBFC9DF85E30012B79
:10B1240040F0928002F014FA03468DF85C3017ABBD
:10B134001A46012140F20350FFF7BAFC01AB212269
:10B14400002118462BF0F2F901AB184602F016FA6A
:10B1540001AB18462BF082F803469BB201AA1946AC
:10B1640040F20450FFF7A4FC11AB1522002118464D
:10B174002BF0DCF911AB184602F034FA11AB1A4685
:10B18400142140F20550FFF793FC0DAB184602F072
:10B1940055FA0DAB1A460F2140F20650FFF788FC12
:10B1A400FFF7E0FB03468DF833300DF133031A4605
:10B1B400012140F20750FFF77BFCFFF7E7FB034652
:10B1C4008DF832300DF132031A4601214FF4A1609B
:10B1D400FFF76EFCFFF7F0FB0346ADF830300CAB25
:10B1E4001A46022140F20950FFF762FCFFF7F8FB10
:10B1F4000346ADF82E300DF12E031A46012140F21C
:10B204000A50FFF755FCFFF7FFFB03462593259BE8
:10B214001BBA0A930AAB1A46042140F20B50FFF7FB
:10B2240047FCFFF701FC03462793279B5BBA269351
:10B23400269B9BB2ADF826300DF126031A46032156
:10B2440040F20C50FFF734FC00F0CAFB012318460F
:10B254003FB05DF804FB000010B5ACB0FFF7FAFB9B
:10B264000023ADF8AA30884B00221A70874B0022C5
:10B274001A70874B00221A7006F0BAFC0346239317
:10B28400239B1BBA0F930FAB1A4604210020FFF730
:10B294000FFC00238DF83B300DF13B031A460121CE
:10B2A40040F24110FFF704FC0023ADF838300023CE
:10B2B400ADF836300DF136020EAB114618460BF0E0
:10B2C40035FBBDF936302593259B5BBA2493249B2B
:10B2D4009BB2ADF834300DAB1A4602214FF4A17085
:10B2E400FFF7E6FBFFF72AFB03468DF833300DF139
:10B2F40033031A46012140F20250FFF7D9FBFFF74E
:10B3040045FB03468DF832300DF132031A46012114
:10B314004FF4A160FFF7CCFBFFF74EFB0346ADF8FB
:10B3240030300CAB1A46022140F20950FFF7C0FB43
:10B33400FFF756FB0346ADF82E300DF12E031A46E7
:10B34400012140F20A50FFF7B3FBFFF75DFB034610
:10B354002693269B1BBA0A930AAB1A46042140F291
:10B364000B50FFF7A5FBFFF75FFB03462893289BD1
:10B374005BBA2793279B9BB2ADF826300DF12603C9
:10B384001A46032140F20C50FFF792FB414B1C88F4
:10B39400FFF7E6FB0346E31AADF8AA300523ADF840
:10B3A400A830BDF8AA20BDF8A830D31AADF8AA3049
:10B3B4000823ADF8AE3001F053FE0346002B04D051
:10B3C400BDF8AE300633ADF8AE3001F06BFE034687
:10B3D400002B04D0BDF8AE300633ADF8AE3001F02A
:10B3E400A5FE0346002B04D0BDF8AE300A33ADF8F9
:10B3F400AE3001F0BDFE0346002B04D0BDF8AE30E4
:10B404000633ADF8AE3001F06FFE0346002B04D0D6
:10B41400BDF8AE300533ADF8AE3001F0CBFE0346D7
:10B42400002B04D0BDF8AE300A33ADF8AE30BDF811
:10B43400AA20BDF8AE30B2FBF3F39BB28DF8A7306F
:10B4440003F066FA0346DAB2114B1A70104B1B78FC
:10B454001A469DF8A73010490320FEF77FFF0C4BD6
:10B464001B789DF8A7209A4203D2094A9DF8A73079
:10B474001370074A012140F20240FFF719FB002331
:10B484008DF8AD30E0E000BF6C9A00206D9A00208A
:10B494006E9A0020349A0020087F05009DF8AD20A4
:10B4A40001AB1146184603F0C9FAFFF75FFB019C94
:10B4B40006F0BEFA0246019BD31A1B09704AA2FB8E
:10B4C4000323DB0923440093009B2293229B1BBA92
:10B4D40000936B4619460120FFF758FB01F0C0FDAD
:10B4E4000346002B0FD0BDF908302193219B5BBA92
:10B4F4002093209B1BB2ADF8083001AB04331946EE
:10B504000320FFF743FB01F0CDFD0346002B10D0D1
:10B51400BDF90B301BB21F931F9B5BBA1E931E9B7E
:10B524001BB2ADF80B3001AB073319460420FFF70B
:10B534002DFB01F0FBFD0346002B26D0BDF90D3099
:10B544001BB21993199B5BBA1893189B1BB2ADF8E5
:10B554000D30BDF90F301BB21B931B9B5BBA1A93C2
:10B564001A9B1BB2ADF80F30BDF911301BB21D93FD
:10B574001D9B5BBA1C931C9B1BB2ADF8113001AB35
:10B58400093319460520FFF701FB01F0F1FD0346DD
:10B59400002B10D0BDF819309BB21793179B5BBAE0
:10B5A4001693169B9BB2ADF8193001AB15331946AF
:10B5B4000620FFF7EBFA01F097FD0346002B05D0B8
:10B5C40001AB063319460720FFF7E0FA01F0F2FD5C
:10B5D4000346002B26D0BDF913301BB21193119BE7
:10B5E4005BBA1093109B1BB2ADF81330BDF9153044
:10B5F4001BB21393139B5BBA1293129B1BB2ADF84D
:10B604001530BDF917301BB21593159B5BBA149313
:10B61400149B1BB2ADF8173001AB0F331946082049
:10B62400FFF7B4FAFFF722FB03461C46FFF724FB9F
:10B6340003461A46214640F20340FFF739FA9DF8C3
:10B64400AD3001338DF8AD300E4B1B789DF8AD2035
:10B654009A42FFF423AF0C4B1B78002B09D1094B02
:10B664001B78002B05D1094B1B78002B01D100233B
:10B6740002E000F0B5F9012318462CB010BD00BF5C
:10B68400C55A7C0A6E9A00206C9A00206D9A00209C
:10B6940090B00023184610B07047000010B5A2B057
:10B6A400FFF7D8F90023ADF88630B04B00221A70AA
:10B6B40006F09EFA03460D930D9B1BBA0C930CAB3C
:10B6C4001A4604210020FFF7F3F900238DF82F30E8
:10B6D4000DF12F031A46012140F24110FFF7E8F95A
:10B6E4000023ADF82C300023ADF82A300DF12A02E6
:10B6F4000BAB114618460BF019F9BDF92A300F931C
:10B704000F9B5BBA0E930E9B9BB2ADF828300AAB2D
:10B714001A4602214FF4A170FFF7CAF9FFF70EF998
:10B7240003468DF827300DF127031A46012140F214
:10B734000250FFF7BDF9FFF729F903468DF82630CB
:10B744000DF126031A4601214FF4A160FFF7B0F969
:10B75400FFF732F90346ADF8243009AB1A4602214B
:10B7640040F20950FFF7A4F9FFF73AF90346ADF8A0
:10B7740022300DF122031A46012140F20A50FFF74C
:10B7840097F9FFF741F903461093109B1BBA0793EF
:10B7940007AB1A46042140F20B50FFF789F9FFF773
:10B7A40043F903461293129B5BBA1193119B9BB20C
:10B7B400ADF81A300DF11A031A46032140F20C5069
:10B7C400FFF776F96A4B1C88FFF7CAF90346E31AB8
:10B7D400ADF88630654B02221A70644A01214FF499
:10B7E4008060FFF765F90023059300238DF813307B
:10B7F4000023ADF810300023ADF80E300023ADF86F
:10B804000C30FFF7B3F906F0F3F90346783B1393D2
:10B81400139B1BBA059305AB19460120FFF7B6F934
:10B8240002238DF813300DF1130319460220FFF79C
:10B83400ADF919231593159B5BBA1493149B9BB212
:10B84400ADF810304FF6E7731793179B5BBA169356
:10B85400169B9BB2ADF80E300A231993199B5BBA61
:10B864001893189B9BB2ADF80C30BDF81030ADF8AE
:10B87400043001AB0233BDF80E201A8001AB04334F
:10B88400BDF80C201A8001AB19460520FFF77EF99C
:10B89400FFF7ECF903461C46FFF7EEF903461A4698
:10B8A400214640F20140FFF703F9FFF75FF906F084
:10B8B4009FF903463C3B1A931A9B1BBA059305ABAD
:10B8C40019460120FFF762F902238DF813300DF1B8
:10B8D400130319460220FFF759F919231C931C9BE3
:10B8E4005BBA1B931B9B9BB2ADF810304FF6E7730A
:10B8F4001E931E9B5BBA1D931D9B9BB2ADF80E302D
:10B904000A232093209B5BBA1F931F9B9BB2ADF825
:10B914000C30BDF81030ADF8043001AB0233BDF883
:10B924000E201A8001AB0433BDF80C201A8001AB41
:10B9340019460520FFF72AF9FFF798F903461C4634
:10B94400FFF79AF903461A46214640F20140FFF7F1
:10B95400AFF8064B1B78002B01D1002302E000F066
:10B964003FF80123184622B010BD00BF6D9A002095
:10B97400349A002000B585B00023ADF80E300023C2
:10B984008DF80D30124B1B781A46124B1B78194652
:10B99400114B1B7800930B4610490320FEF7DEFC85
:10B9A4000B4B1B78184603F0B3F803468DF80D30A3
:10B9B400074B00221A70074B00221A70064B002214
:10B9C4001A709DF80D30184605B05DF804FB00BFF1
:10B9D4006E9A00206C9A00206D9A0020347F050036
:10B9E40000BF704700B585B00346029101928DF8FF
:10B9F4000F309DF80F30012B02D0022B05D005E04B
:10BA04000199029800F0FCF900E000BF00BF05B006
:10BA14005DF804FB82B001900091064A019B13601B
:10BA2400054A009B1360054B00221A8000BF02B038
:10BA3400704700BF709A0020749A0020789A002002
:10BA4400054B00221A60054B00221A60044B0022A9
:10BA54001A8000BF704700BF709A0020749A0020BB
:10BA6400789A0020064B1B8801331A46054B1B6845
:10BA74009A4201D3002300E001231846704700BF17
:10BA8400789A0020749A002000B583B00190114B7D
:10BA94001B8803331A46104B1B689A4205D90F4979
:10BAA4000120FEF75BFC00230FE00D4B1B68094AE5
:10BAB400128813441B889AB2019B1A80054B1B8879
:10BAC40002339AB2034B1A800123184603B05DF87F
:10BAD40004FB00BF789A0020749A0020607F050060
:10BAE400709A002000B583B00190114B1B8803337A
:10BAF4001A46104B1B689A4205D90F490120FEF7DC
:10BB04002DFC00230FE00D4B1B68094A12881344D7
:10BB14001B889AB2019B1A80054B1B8802339AB288
:10BB2400034B1A800123184603B05DF804FB00BFE1
:10BB3400789A0020749A0020607F0500709A002093
:10BB440082B003460091ADF80630104B1B881A46AC
:10BB5400BDF8063013441A460D4B1B689A4201D9AE
:10BB640000230FE00B4B1B68084A12881A44009B01
:10BB74001A60064B1A88BDF8063013449AB2034B78
:10BB84001A800123184602B0704700BF789A00203B
:10BB9400749A0020709A002082B003468DF8073012
:10BBA4009DF80730012B01D1002300E00123184642
:10BBB40002B0704700B585B003468DF80F309DF88C
:10BBC4000F30032B18D0032B1FDC012B02D0022BC8
:10BBD40009D01AE0002300930023002200210E481C
:10BBE4000EF046F912E00023009300230022002106
:10BBF4000A480EF03DF909E00023009300230022D7
:10BC0400002107480EF034F900E000BF0123184674
:10BC140005B05DF804FB00BF010203010202030149
:10BC24000302030182B003468DF807309DF8073004
:10BC3400042B0DD801A252F823F000BF59BC020016
:10BC440059BC020059BC020059BC020059BC020094
:10BC5400002301E000BF0123184602B0704700BF73
:10BC640082B00346ADF806300123184602B070478F
:10BC740082B00346ADF806300123184602B070477F
:10BC840082B00346ADF806300123184602B070476F
:10BC940082B00346ADF806300123184602B070475F
:10BCA40082B003468DF807300123184602B070476E
:10BCB40082B003468DF807300123184602B070475E
:10BCC40082B003468DF807300123184602B070474E
:10BCD40082B003468DF807300123184602B070473E
:10BCE40082B003468DF807300123184602B070472E
:10BCF40082B003468DF807300123184602B070471E
:10BD040082B003468DF807300123184602B070470D
:10BD140082B003468DF807300123184602B07047FD
:10BD240082B003468DF807300123184602B07047ED
:10BD340082B00346ADF806300123184602B07047BE
:10BD440082B00346ADF806300123184602B07047AE
:10BD540082B003468DF807300123184602B07047BD
:10BD640082B00346ADF806300123184602B070478E
:10BD740082B00346ADF806300123184602B070477E
:10BD840082B003468DF807300123184602B070478D
:10BD940082B003468DF807300123184602B070477D
:10BDA40082B003468DF807300123184602B070476D
:10BDB40082B003468DF807300123184602B070475D
:10BDC40082B003468DF807300123184602B070474D
:10BDD40082B003468DF807300123184602B070473D
:10BDE40082B00346ADF806300123184602B070470E
:10BDF40082B00346ADF806300123184602B07047FE
:10BE040000B5A5B00190009100238DF88B3000237C
:10BE14008DF88F3000238DF88E3005AB2822FF215A
:10BE240018462AF083FB0FAB3C22002118462AF067
:10BE34007DFB00990198FFF7EDFDD1E20023ADF8F9
:10BE440012300023ADF81030002303930DF11203D8
:10BE54001846FFF719FE04AB1846FFF743FEBDF87A
:10BE640012301F931F9B5BBA1E931E9B9BB2ADF8AF
:10BE74001230BDF810302193219B5BBA2093209B94
:10BE84009BB2ADF81030BDF8103003AA1146184625
:10BE9400FFF756FE9DF88F305A1C8DF88F20BDF8A1
:10BEA40012205B0090336B4423F8542CBDF81230FD
:10BEB400052B00F39380002B7EDC54E2A3F5827300
:10BEC4003A2B00F2508201A252F823F069C002001A
:10BED40087C00200A5C002006BC302006BC302004E
:10BEE400C3C002006BC302006BC302006BC3020039
:10BEF4006BC302006BC302006BC302006BC302007E
:10BF04006BC302006BC302006BC302006BC302006D
:10BF14006BC302006BC302006BC302006BC302005D
:10BF24006BC302006BC302006BC302006BC302004D
:10BF34006BC302006BC302006BC30200E1C00200CA
:10BF4400FFC002001DC102003BC1020059C1020032
:10BF540077C1020095C102006BC302006BC30200EB
:10BF64006BC302006BC302006BC302006BC302000D
:10BF74006BC302006BC302006BC30200B3C10200B7
:10BF8400D1C10200EFC102000DC202002BC20200A7
:10BF940049C2020067C2020085C20200A3C20200B5
:10BFA400C1C20200DFC20200FBC2020017C30200CA
:10BFB40033C302004FC30200013B042B00F2D381C0
:10BFC40001A252F823F000BFF3BF02000FC0020029
:10BFD4006BC302002DC002004BC00200B3F59F7F6B
:10BFE40000F3C181B3F5827FBFF668AFBBE1BDF852
:10BFF4001030012B40F0B9810399BDF810301A4676
:10C0040005AB18462AF060FAAFE1BDF81030012BF9
:10C0140040F0AD810399BDF810301A4605AB0133E9
:10C0240018462AF051FAA2E1BDF81030012B40F075
:10C03400A0810399BDF810301A4605AB02331846A7
:10C044002AF042FA95E1BDF81030012B40F09381BB
:10C054000399BDF810301A4605AB033318462AF08D
:10C0640033FA88E1BDF81030022B40F08681039941
:10C07400BDF810301A4605AB043318462AF024FAEA
:10C084007BE1BDF81030022B40F079810399BDF8B3
:10C0940010301A4605AB083318462AF015FA6EE13B
:10C0A400BDF81030022B40F06C810399BDF81030BC
:10C0B4001A4605AB063318462AF006FA61E1BDF8C4
:10C0C4001030022B40F05F810399BDF810301A46FE
:10C0D40005AB0A3318462AF0F7F954E1BDF81030DD
:10C0E400012B40F052810399BDF810301A4605AB7C
:10C0F4000C3318462AF0E8F947E1BDF81030012B5B
:10C1040040F045810399BDF810301A4605AB0D3354
:10C1140018462AF0D9F93AE1BDF81030012B40F065
:10C1240038810399BDF810301A4605AB0E33184612
:10C134002AF0CAF92DE1BDF81030012B40F02B8113
:10C144000399BDF810301A4605AB0F3318462AF090
:10C15400BBF920E1BDF81030012B40F01E8103999A
:10C16400BDF810301A4605AB103318462AF0ACF966
:10C1740013E1BDF81030012B40F011810399BDF893
:10C1840010301A4605AB113318462AF09DF906E122
:10C19400BDF81030012B40F004810399BDF8103034
:10C1A4001A4605AB123318462AF08EF9F9E0BDF8A9
:10C1B4001030012B40F0F7800399BDF810301A4677
:10C1C40005AB123318462AF07FF9ECE0BDF81030C5
:10C1D400012B40F0EA800399BDF810301A4605ABF4
:10C1E400143318462AF070F9DFE0BDF81030022B42
:10C1F40040F0DD800399BDF810301A4605AB1633C4
:10C2040018462AF061F9D2E0BDF81030022B40F054
:10C21400D0800399BDF810301A4605AB1833184680
:10C224002AF052F9C5E0BDF81030012B40F0C3806C
:10C234000399BDF810301A4605AB1A3318462AF094
:10C2440043F9B8E0BDF81030022B40F0B6800399F2
:10C25400BDF810301A4605AB1C3318462AF034F9E1
:10C26400ABE0BDF81030022B40F0A9800399BDF873
:10C2740010301A4605AB1E3318462AF025F99EE005
:10C28400BDF81030012B40F09C800399BDF81030AC
:10C294001A4605AB203318462AF016F991E0BDF88A
:10C2A4001030012B40F08F800399BDF810301A46EE
:10C2B40005AB213318462AF007F984E0BDF81030A5
:10C2C400012B40F082800399BDF810301A4605AB6B
:10C2D400223318462AF0F8F877E0BDF81030012B25
:10C2E40075D10399BDF810301A4605AB23331846AF
:10C2F4002AF0EAF86BE0BDF81030012B69D10399FC
:10C30400BDF810301A4605AB243318462AF0DCF881
:10C314005FE0BDF81030012B5DD10399BDF81030FA
:10C324001A4605AB253318462AF0CEF853E0BDF87B
:10C334001030012B51D10399BDF810301A4605ABCA
:10C34400263318462AF0C0F847E0BDF81030012B18
:10C3540045D10399BDF810301A4605AB273318466A
:10C364002AF0B2F83BE000BF3AE000BF38E000BF7B
:10C3740036E000BF34E000BF32E000BF30E000BF71
:10C384002EE000BF2CE000BF2AE000BF28E000BF81
:10C3940026E000BF24E000BF22E000BF20E000BF91
:10C3A4001EE000BF1CE000BF1AE000BF18E000BFA1
:10C3B40016E000BF14E000BF12E000BF10E000BFB1
:10C3C4000EE000BF0CE000BF0AE000BF08E000BFC1
:10C3D40006E000BF04E000BF02E000BF00E000BFD1
:10C3E400FFF740FB0346002B7FF428ADFFF728FB43
:10C3F4009DF814301846FFF7CFFB0346012B06D0F7
:10C404009DF814301A46E4490220FDF7A7FF0023E3
:10C414008DF88D3000238DF88C30ACE19DF88C3094
:10C424005B0090336B4433F8543C052B00F3948049
:10C43400002B7FDC99E1A3F582733A2B00F29581FE
:10C4440001A252F823F000BF9BC50200ADC5020053
:10C45400BFC502006FC702006FC70200D1C502004A
:10C464006FC702006FC702006FC702006FC70200E8
:10C474006FC702006FC702006FC702006FC70200D8
:10C484006FC702006FC702006FC702006FC70200C8
:10C494006FC702006FC702006FC702006FC70200B8
:10C4A4006FC702006FC702006FC702006FC70200A8
:10C4B4006FC702006FC70200E3C50200F5C50200A2
:10C4C40007C6020019C602002BC602003DC60200C0
:10C4D4004FC602006FC702006FC702006FC7020099
:10C4E4006FC702006FC702006FC702006FC7020068
:10C4F4006FC702006FC7020061C6020073C6020064
:10C5040085C6020097C60200A9C60200BBC6020087
:10C51400CDC60200DFC60200F1C6020003C7020056
:10C5240015C7020027C7020039C702004BC7020023
:10C534005DC70200013B042B00F2178101A252F8EF
:10C5440023F000BF6FC502007BC502006FC7020065
:10C5540087C502008FC50200B3F59F7F00F30581F4
:10C56400B3F5827FBFF667AFFFE09DF88E300133ED
:10C574008DF88E30FAE09DF88E3001338DF88E30D0
:10C58400F4E001238DF88D30F0E09DF81730184663
:10C5940000F03EFCEAE0BDF818301846FFF760FBF7
:10C5A40003468DF88B30E1E0BDF81C301846FFF7E8
:10C5B4005FFB03468DF88B30D8E0BDF81A3018467F
:10C5C400FFF75EFB03468DF88B30CFE0BDF81E30DD
:10C5D4001846FFF75DFB03468DF88B30C6E09DF8E7
:10C5E40020301846FFF75CFB03468DF88B30BDE026
:10C5F4009DF821301846FFF75BFB03468DF88B301E
:10C60400B4E09DF822301846FFF75AFB03468DF834
:10C614008B30ABE09DF823301846FFF759FB0346F7
:10C624008DF88B30A2E09DF824301846FFF758FBB4
:10C6340003468DF88B3099E09DF825301846FFF7B6
:10C6440057FB03468DF88B3090E09DF82630184652
:10C65400FFF756FB03468DF88B3087E09DF82730B3
:10C664001846FFF755FB03468DF88B307EE09DF8A6
:10C6740028301846FFF754FB03468DF88B3075E0DD
:10C68400BDF82A301846FFF753FB03468DF88B306C
:10C694006CE0BDF82C301846FFF752FB03468DF8CA
:10C6A4008B3063E09DF82E301846FFF751FB0346AC
:10C6B4008DF88B305AE0BDF830301846FFF750FB48
:10C6C40003468DF88B3051E0BDF832301846FFF741
:10C6D4004FFB03468DF88B3048E09DF83430184604
:10C6E400FFF74EFB03468DF88B303FE09DF8353065
:10C6F4001846FFF74DFB03468DF88B3036E09DF866
:10C7040036301846FFF74CFB03468DF88B302DE08E
:10C714009DF837301846FFF74BFB03468DF88B30F6
:10C7240024E09DF838301846FFF74AFB03468DF89D
:10C734008B301BE09DF839301846FFF749FB034660
:10C744008DF88B3012E09DF83A301846FFF748FB1D
:10C7540003468DF88B3009E09DF83B301846FFF70F
:10C7640047FB03468DF88B3000E000BF9DF88C300A
:10C7740001338DF88C309DF88C209DF88F309A42CF
:10C78400FFF44CAE9DF88E30022B09D003490120F2
:10C79400FDF7E4FD002318E06C7F05008C7F0500A5
:10C7A4009DF88F30022B01D900F0DEF89DF815308A
:10C7B4001846FFF7FFF99DF88D30012B04D19DF841
:10C7C40016301846FFF72EFA0123184625B05DF8F7
:10C7D40004FB00BF82B003468DF807309DF8073094
:10C7E400012B01D9002304E0034A9DF8073013709C
:10C7F4000123184602B070471E9B002000B5C7B045
:10C80400024646ABA3F58C73196046ABA3F5897356
:10C814001A8046ABA3F5867318464FF480731A4604
:10C82400002129F083FE46ABA3F5887300221A8009
:10C8340000238DF81731FF238DF80F3100238DF875
:10C844000E310023449344E0314B1B78012B23D158
:10C85400449B5B001A4646ABA3F58C731B681344D8
:10C864001A7846ABA3F588731A70449B5B000133B6
:10C8740046AAA2F58C72126813441A7846ABA3F543
:10C8840088735A7002AB10220021184626F03DFE30
:10C8940003468DF8173108E0449B46AAA2F58C7232
:10C8A400126813441B788DF817319DF81731002B4B
:10C8B40008D046ABA3F58672449B13449DF8172118
:10C8C4001A7003E0449B8DF80F3105E0449B01335B
:10C8D4004493449BFF2BB7DD46ABA3F589731B88B8
:10C8E40003F540631B02184603AB4FF480721946EC
:10C8F40005F076FC0346002B01D1002303E046AB90
:10C90400A3F589731B88184647B05DF804FB00BF84
:10C914001E9B002008B5A2220349002005F0CAFC92
:10C924000346184608BD00BF7C9A002000B583B0BA
:10C9340008230093002301930CE0019B1B04184679
:10C9440005F042FD0346002B01D1002307E0019BC3
:10C9540001330193019A009B9A42EED301231846B6
:10C9640003B05DF804FB000008B5FFF7DFFF0346E2
:10C97400002B01D100230AE0A2220649002005F081
:10C984002FFC0346002B01D1002300E001231846AD
:10C9940008BD00BF7C9A002000B585B0002000F0DF
:10C9A400F1F94E4800F00EFA6B46102200211846A9
:10C9B40029F0BCFD6B4606224949184628F0A4FA22
:10C9C4006B46184629F04AFC0346DAB26B46114618
:10C9D400184600F009FA4FF4617000F02DFA4FF494
:10C9E400617000F03DFA3C2000F04EFA012000F0A6
:10C9F4005FFA002000F06AFA012000F07DFA0120BD
:10CA040000F090FA012000F0A3FA012000F0B6FA39
:10CA1400012000F0C9FA012000F0DCFA002000F047
:10CA2400EFFA012000F002FB012000F021FB0120BD
:10CA340000F040FB012000F05FFB012000F07EFBD2
:10CA4400012000F09DFB002000F0BCFB002000F062
:10CA5400CFFB002000F0E2FB002000F0F5FB0020FB
:10CA640000F008FC002000F01BFC002000F02CFC6F
:10CA7400002000F03DFC002000F050FC002000F0FD
:10CA840063FC002000F076FC002000F089FC00200C
:10CA940000F09CFC002000F0AFFC002000F0C2FC81
:10CAA400002000F0D5FC012000F0E8FC00F046FD79
:10CAB400012000F0F9FC012000F014FD012000F039
:10CAC4004FFD002000F0D6FD002000F0DFFDFFF751
